{
  "contractName": "Flashloan",
  "abi": [
    {
      "inputs": [
        {
          "internalType": "address",
          "name": "kyberAddress",
          "type": "address"
        },
        {
          "internalType": "address",
          "name": "uniswapAddress",
          "type": "address"
        },
        {
          "internalType": "address",
          "name": "wethAddress",
          "type": "address"
        },
        {
          "internalType": "address",
          "name": "daiAddress",
          "type": "address"
        },
        {
          "internalType": "address",
          "name": "beneficiaryAddress",
          "type": "address"
        }
      ],
      "payable": false,
      "stateMutability": "nonpayable",
      "type": "constructor"
    },
    {
      "anonymous": false,
      "inputs": [
        {
          "indexed": false,
          "internalType": "enum Flashloan.Direction",
          "name": "direction",
          "type": "uint8"
        },
        {
          "indexed": false,
          "internalType": "uint256",
          "name": "profit",
          "type": "uint256"
        },
        {
          "indexed": false,
          "internalType": "uint256",
          "name": "date",
          "type": "uint256"
        }
      ],
      "name": "NewArbitrage",
      "type": "event"
    },
    {
      "constant": false,
      "inputs": [
        {
          "internalType": "address",
          "name": "sender",
          "type": "address"
        },
        {
          "components": [
            {
              "internalType": "address",
              "name": "owner",
              "type": "address"
            },
            {
              "internalType": "uint256",
              "name": "number",
              "type": "uint256"
            }
          ],
          "internalType": "struct Account.Info",
          "name": "account",
          "type": "tuple"
        },
        {
          "internalType": "bytes",
          "name": "data",
          "type": "bytes"
        }
      ],
      "name": "callFunction",
      "outputs": [],
      "payable": false,
      "stateMutability": "nonpayable",
      "type": "function"
    },
    {
      "constant": false,
      "inputs": [
        {
          "internalType": "address",
          "name": "_solo",
          "type": "address"
        },
        {
          "internalType": "address",
          "name": "_token",
          "type": "address"
        },
        {
          "internalType": "uint256",
          "name": "_amount",
          "type": "uint256"
        },
        {
          "internalType": "enum Flashloan.Direction",
          "name": "_direction",
          "type": "uint8"
        }
      ],
      "name": "initateFlashLoan",
      "outputs": [],
      "payable": false,
      "stateMutability": "nonpayable",
      "type": "function"
    }
  ],
  "bytecode": "0x60806040523480156200001157600080fd5b50604051620029403803806200294083398181016040526200003791908101906200019d565b846000806101000a81548173ffffffffffffffffffffffffffffffffffffffff021916908373ffffffffffffffffffffffffffffffffffffffff16021790555083600160006101000a81548173ffffffffffffffffffffffffffffffffffffffff021916908373ffffffffffffffffffffffffffffffffffffffff16021790555082600260006101000a81548173ffffffffffffffffffffffffffffffffffffffff021916908373ffffffffffffffffffffffffffffffffffffffff16021790555081600360006101000a81548173ffffffffffffffffffffffffffffffffffffffff021916908373ffffffffffffffffffffffffffffffffffffffff16021790555080600460006101000a81548173ffffffffffffffffffffffffffffffffffffffff021916908373ffffffffffffffffffffffffffffffffffffffff16021790555050505050506200026d565b600081519050620001978162000253565b92915050565b600080600080600060a08688031215620001b657600080fd5b6000620001c68882890162000186565b9550506020620001d98882890162000186565b9450506040620001ec8882890162000186565b9350506060620001ff8882890162000186565b9250506080620002128882890162000186565b9150509295509295909350565b60006200022c8262000233565b9050919050565b600073ffffffffffffffffffffffffffffffffffffffff82169050919050565b6200025e816200021f565b81146200026a57600080fd5b50565b6126c3806200027d6000396000f3fe608060405234801561001057600080fd5b50600436106100365760003560e01c80638b4187131461003b578063f7b967a014610057575b600080fd5b6100556004803603610050919081019061198c565b610073565b005b610071600480360361006c9190810190611929565b610e7f565b005b61007b611561565b8180602001905161008f9190810190611a5d565b90506000600360009054906101000a900473ffffffffffffffffffffffffffffffffffffffff1673ffffffffffffffffffffffffffffffffffffffff166370a08231306040518263ffffffff1660e01b81526004016100ee9190612056565b60206040518083038186803b15801561010657600080fd5b505afa15801561011a573d6000803e3d6000fd5b505050506040513d601f19601f8201168201806040525061013e9190810190611a86565b90506000600181111561014d57fe5b8260000151600181111561015d57fe5b14156106c857600360009054906101000a900473ffffffffffffffffffffffffffffffffffffffff1673ffffffffffffffffffffffffffffffffffffffff1663095ea7b36000809054906101000a900473ffffffffffffffffffffffffffffffffffffffff16836040518363ffffffff1660e01b81526004016101e1929190612071565b602060405180830381600087803b1580156101fb57600080fd5b505af115801561020f573d6000803e3d6000fd5b505050506040513d601f19601f820116820180604052506102339190810190611a34565b610272576040517f08c379a00000000000000000000000000000000000000000000000000000000081526004016102699061221f565b60405180910390fd5b60008060009054906101000a900473ffffffffffffffffffffffffffffffffffffffff1673ffffffffffffffffffffffffffffffffffffffff1663809a9e55600360009054906101000a900473ffffffffffffffffffffffffffffffffffffffff1673eeeeeeeeeeeeeeeeeeeeeeeeeeeeeeeeeeeeeeee856040518463ffffffff1660e01b8152600401610308939291906120d1565b604080518083038186803b15801561031f57600080fd5b505afa158015610333573d6000803e3d6000fd5b505050506040513d601f19601f820116820180604052506103579190810190611aaf565b5090506000809054906101000a900473ffffffffffffffffffffffffffffffffffffffff1673ffffffffffffffffffffffffffffffffffffffff16633bba21dc600360009054906101000a900473ffffffffffffffffffffffffffffffffffffffff1684846040518463ffffffff1660e01b81526004016103da93929190612131565b602060405180830381600087803b1580156103f457600080fd5b505af1158015610408573d6000803e3d6000fd5b505050506040513d601f19601f8201168201806040525061042c9190810190611a86565b506060600260405190808252806020026020018201604052801561045f5781602001602082028038833980820191505090505b509050600260009054906101000a900473ffffffffffffffffffffffffffffffffffffffff168160008151811061049257fe5b602002602001019073ffffffffffffffffffffffffffffffffffffffff16908173ffffffffffffffffffffffffffffffffffffffff1681525050600360009054906101000a900473ffffffffffffffffffffffffffffffffffffffff16816001815181106104fc57fe5b602002602001019073ffffffffffffffffffffffffffffffffffffffff16908173ffffffffffffffffffffffffffffffffffffffff16815250506060600160009054906101000a900473ffffffffffffffffffffffffffffffffffffffff1673ffffffffffffffffffffffffffffffffffffffff1663d06ca61f60024703846040518363ffffffff1660e01b8152600401610598929190612275565b60006040518083038186803b1580156105b057600080fd5b505afa1580156105c4573d6000803e3d6000fd5b505050506040513d6000823e3d601f19601f820116820180604052506105ed91908101906119f3565b9050600160009054906101000a900473ffffffffffffffffffffffffffffffffffffffff1673ffffffffffffffffffffffffffffffffffffffff16637ff36ab5600247038360008151811061063e57fe5b60200260200101518530426040518663ffffffff1660e01b815260040161066894939291906122a5565b6000604051808303818588803b15801561068157600080fd5b505af1158015610695573d6000803e3d6000fd5b50505050506040513d6000823e3d601f19601f820116820180604052506106bf91908101906119f3565b50505050610c2a565b600360009054906101000a900473ffffffffffffffffffffffffffffffffffffffff1673ffffffffffffffffffffffffffffffffffffffff1663095ea7b3600160009054906101000a900473ffffffffffffffffffffffffffffffffffffffff16836040518363ffffffff1660e01b8152600401610747929190612071565b602060405180830381600087803b15801561076157600080fd5b505af1158015610775573d6000803e3d6000fd5b505050506040513d601f19601f820116820180604052506107999190810190611a34565b6107d8576040517f08c379a00000000000000000000000000000000000000000000000000000000081526004016107cf9061221f565b60405180910390fd5b6060600260405190808252806020026020018201604052801561080a5781602001602082028038833980820191505090505b509050600360009054906101000a900473ffffffffffffffffffffffffffffffffffffffff168160008151811061083d57fe5b602002602001019073ffffffffffffffffffffffffffffffffffffffff16908173ffffffffffffffffffffffffffffffffffffffff1681525050600260009054906101000a900473ffffffffffffffffffffffffffffffffffffffff16816001815181106108a757fe5b602002602001019073ffffffffffffffffffffffffffffffffffffffff16908173ffffffffffffffffffffffffffffffffffffffff16815250506060600160009054906101000a900473ffffffffffffffffffffffffffffffffffffffff1673ffffffffffffffffffffffffffffffffffffffff1663d06ca61f84846040518363ffffffff1660e01b8152600401610940929190612275565b60006040518083038186803b15801561095857600080fd5b505afa15801561096c573d6000803e3d6000fd5b505050506040513d6000823e3d601f19601f8201168201806040525061099591908101906119f3565b9050600160009054906101000a900473ffffffffffffffffffffffffffffffffffffffff1673ffffffffffffffffffffffffffffffffffffffff166318cbafe584836000815181106109e357fe5b60200260200101518530426040518663ffffffff1660e01b8152600401610a0e9594939291906122f1565b600060405180830381600087803b158015610a2857600080fd5b505af1158015610a3c573d6000803e3d6000fd5b505050506040513d6000823e3d601f19601f82011682018060405250610a6591908101906119f3565b5060008060009054906101000a900473ffffffffffffffffffffffffffffffffffffffff1673ffffffffffffffffffffffffffffffffffffffff1663809a9e5573eeeeeeeeeeeeeeeeeeeeeeeeeeeeeeeeeeeeeeee600360009054906101000a900473ffffffffffffffffffffffffffffffffffffffff16600247036040518463ffffffff1660e01b8152600401610aff939291906120d1565b604080518083038186803b158015610b1657600080fd5b505afa158015610b2a573d6000803e3d6000fd5b505050506040513d601f19601f82011682018060405250610b4e9190810190611aaf565b5090506000809054906101000a900473ffffffffffffffffffffffffffffffffffffffff1673ffffffffffffffffffffffffffffffffffffffff16637a2a045660024703600360009054906101000a900473ffffffffffffffffffffffffffffffffffffffff16846040518463ffffffff1660e01b8152600401610bd3929190612108565b6020604051808303818588803b158015610bec57600080fd5b505af1158015610c00573d6000803e3d6000fd5b50505050506040513d601f19601f82011682018060405250610c259190810190611a86565b505050505b6000600360009054906101000a900473ffffffffffffffffffffffffffffffffffffffff1673ffffffffffffffffffffffffffffffffffffffff166370a08231306040518263ffffffff1660e01b8152600401610c879190612056565b60206040518083038186803b158015610c9f57600080fd5b505afa158015610cb3573d6000803e3d6000fd5b505050506040513d601f19601f82011682018060405250610cd79190810190611a86565b9050600083602001518203905060008111610d27576040517f08c379a0000000000000000000000000000000000000000000000000000000008152600401610d1e906121bf565b60405180910390fd5b600360009054906101000a900473ffffffffffffffffffffffffffffffffffffffff1673ffffffffffffffffffffffffffffffffffffffff1663a9059cbb600460009054906101000a900473ffffffffffffffffffffffffffffffffffffffff16836040518363ffffffff1660e01b8152600401610da6929190612071565b602060405180830381600087803b158015610dc057600080fd5b505af1158015610dd4573d6000803e3d6000fd5b505050506040513d601f19601f82011682018060405250610df89190810190611a34565b610e37576040517f08c379a0000000000000000000000000000000000000000000000000000000008152600401610e2e906121ff565b60405180910390fd5b7fa89b78c8d1240154beaf4b865d2d7cb794ac0f358c618aef3de102cf4a4ee42d84600001518242604051610e6e93929190612168565b60405180910390a150505050505050565b60008490506000610e9086866110e8565b90506000610e9d8561129a565b90508573ffffffffffffffffffffffffffffffffffffffff1663095ea7b388836040518363ffffffff1660e01b8152600401610eda929190612071565b602060405180830381600087803b158015610ef457600080fd5b505af1158015610f08573d6000803e3d6000fd5b505050506040513d601f19601f82011682018060405250610f2c9190810190611a34565b5060606003604051908082528060200260200182016040528015610f6a57816020015b610f57611586565b815260200190600190039081610f4f5790505b509050610f7783876112b7565b81600081518110610f8457fe5b6020026020010181905250610fd66040518060400160405280876001811115610fa957fe5b815260200184815250604051602001610fc2919061223f565b604051602081830303815290604052611370565b81600181518110610fe357fe5b6020026020010181905250610ff8838361141a565b8160028151811061100557fe5b60200260200101819052506060600160405190808252806020026020018201604052801561104d57816020015b61103a6115f2565b8152602001906001900390816110325790505b5090506110586114d3565b8160008151811061106557fe5b60200260200101819052508473ffffffffffffffffffffffffffffffffffffffff1663a67a6a4582846040518363ffffffff1660e01b81526004016110ab92919061209a565b600060405180830381600087803b1580156110c557600080fd5b505af11580156110d9573d6000803e3d6000fd5b50505050505050505050505050565b60008083905060008173ffffffffffffffffffffffffffffffffffffffff1663295c39a56040518163ffffffff1660e01b815260040160206040518083038186803b15801561113657600080fd5b505afa15801561114a573d6000803e3d6000fd5b505050506040513d601f19601f8201168201806040525061116e9190810190611a86565b9050600080600090505b82811015611258578373ffffffffffffffffffffffffffffffffffffffff1663062bd3e9826040518263ffffffff1660e01b81526004016111b9919061225a565b60206040518083038186803b1580156111d157600080fd5b505afa1580156111e5573d6000803e3d6000fd5b505050506040513d601f19601f820116820180604052506112099190810190611900565b91508573ffffffffffffffffffffffffffffffffffffffff168273ffffffffffffffffffffffffffffffffffffffff16141561124b5780945050505050611294565b8080600101915050611178565b506040517f08c379a000000000000000000000000000000000000000000000000000000000815260040161128b906121df565b60405180910390fd5b92915050565b60006112b060028361150c90919063ffffffff16565b9050919050565b6112bf611622565b604051806101000160405280600160088111156112d857fe5b81526020016000815260200160405180608001604052806000151581526020016000600181111561130557fe5b81526020016000600181111561131757fe5b8152602001858152508152602001848152602001600081526020013073ffffffffffffffffffffffffffffffffffffffff1681526020016000815260200160405180602001604052806000815250815250905092915050565b611378611622565b60405180610100016040528060088081111561139057fe5b8152602001600081526020016040518060800160405280600015158152602001600060018111156113bd57fe5b8152602001600060018111156113cf57fe5b81526020016000815250815260200160008152602001600081526020013073ffffffffffffffffffffffffffffffffffffffff16815260200160008152602001838152509050919050565b611422611622565b6040518061010001604052806000600881111561143b57fe5b81526020016000815260200160405180608001604052806001151581526020016000600181111561146857fe5b81526020016000600181111561147a57fe5b8152602001858152508152602001848152602001600081526020013073ffffffffffffffffffffffffffffffffffffffff1681526020016000815260200160405180602001604052806000815250815250905092915050565b6114db61168e565b60405180604001604052803073ffffffffffffffffffffffffffffffffffffffff1681526020016001815250905090565b600080828401905083811015611557576040517f08c379a000000000000000000000000000000000000000000000000000000000815260040161154e9061219f565b60405180910390fd5b8091505092915050565b60405180604001604052806000600181111561157957fe5b8152602001600081525090565b6040518061010001604052806000600881111561159f57fe5b8152602001600081526020016115b36116be565b81526020016000815260200160008152602001600073ffffffffffffffffffffffffffffffffffffffff16815260200160008152602001606081525090565b6040518060400160405280600073ffffffffffffffffffffffffffffffffffffffff168152602001600081525090565b6040518061010001604052806000600881111561163b57fe5b81526020016000815260200161164f6116be565b81526020016000815260200160008152602001600073ffffffffffffffffffffffffffffffffffffffff16815260200160008152602001606081525090565b6040518060400160405280600073ffffffffffffffffffffffffffffffffffffffff168152602001600081525090565b6040518060800160405280600015158152602001600060018111156116df57fe5b8152602001600060018111156116f157fe5b8152602001600081525090565b60008135905061170d8161262b565b92915050565b6000815190506117228161262b565b92915050565b600082601f83011261173957600080fd5b815161174c61174782612378565b61234b565b9150818183526020840193506020810190508385602084028201111561177157600080fd5b60005b838110156117a1578161178788826118eb565b845260208401935060208301925050600181019050611774565b5050505092915050565b6000815190506117ba81612642565b92915050565b600082601f8301126117d157600080fd5b81356117e46117df826123a0565b61234b565b9150808252602083016020830185838301111561180057600080fd5b61180b8382846125a4565b50505092915050565b60008135905061182381612659565b92915050565b60008151905061183881612659565b92915050565b60006040828403121561185057600080fd5b61185a604061234b565b9050600061186a84828501611829565b600083015250602061187e848285016118eb565b60208301525092915050565b60006040828403121561189c57600080fd5b6118a6604061234b565b905060006118b6848285016116fe565b60008301525060206118ca848285016118d6565b60208301525092915050565b6000813590506118e581612669565b92915050565b6000815190506118fa81612669565b92915050565b60006020828403121561191257600080fd5b600061192084828501611713565b91505092915050565b6000806000806080858703121561193f57600080fd5b600061194d878288016116fe565b945050602061195e878288016116fe565b935050604061196f878288016118d6565b925050606061198087828801611814565b91505092959194509250565b6000806000608084860312156119a157600080fd5b60006119af868287016116fe565b93505060206119c08682870161188a565b925050606084013567ffffffffffffffff8111156119dd57600080fd5b6119e9868287016117c0565b9150509250925092565b600060208284031215611a0557600080fd5b600082015167ffffffffffffffff811115611a1f57600080fd5b611a2b84828501611728565b91505092915050565b600060208284031215611a4657600080fd5b6000611a54848285016117ab565b91505092915050565b600060408284031215611a6f57600080fd5b6000611a7d8482850161183e565b91505092915050565b600060208284031215611a9857600080fd5b6000611aa6848285016118eb565b91505092915050565b60008060408385031215611ac257600080fd5b6000611ad0858286016118eb565b9250506020611ae1858286016118eb565b9150509250929050565b6000611af78383611b2f565b60208301905092915050565b6000611b0f8383611ed2565b905092915050565b6000611b238383612009565b60408301905092915050565b611b38816124a4565b82525050565b611b47816124a4565b82525050565b6000611b58826123fc565b611b62818561244f565b9350611b6d836123cc565b8060005b83811015611b9e578151611b858882611aeb565b9750611b9083612428565b925050600181019050611b71565b5085935050505092915050565b6000611bb682612407565b611bc08185612460565b935083602082028501611bd2856123dc565b8060005b85811015611c0e5784840389528151611bef8582611b03565b9450611bfa83612435565b925060208a01995050600181019050611bd6565b50829750879550505050505092915050565b6000611c2b82612412565b611c358185612471565b9350611c40836123ec565b8060005b83811015611c71578151611c588882611b17565b9750611c6383612442565b925050600181019050611c44565b5085935050505092915050565b611c87816124b6565b82525050565b6000611c988261241d565b611ca28185612482565b9350611cb28185602086016125b3565b611cbb816125e6565b840191505092915050565b611ccf81612538565b82525050565b611cde8161255c565b82525050565b611ced8161256e565b82525050565b611cfc81612580565b82525050565b611d0b81612592565b82525050565b611d1a81612592565b82525050565b6000611d2d601b83612493565b91507f536166654d6174683a206164646974696f6e206f766572666c6f7700000000006000830152602082019050919050565b6000611d6d601d83612493565b91507f5468657265206973206e6f2070726f6669742120526576657274696e670000006000830152602082019050919050565b6000611dad602483612493565b91507f4e6f206d61726b6574496420666f756e6420666f722070726f7669646564207460008301527f6f6b656e000000000000000000000000000000000000000000000000000000006020830152604082019050919050565b6000611e13602283612493565b91507f436f756c64206e6f74207472616e73666572206261636b207468652070726f6660008301527f69740000000000000000000000000000000000000000000000000000000000006020830152604082019050919050565b6000611e79602483612493565b91507f436f756c64206e6f7420617070726f766520726573657276652061737365742060008301527f73656c6c000000000000000000000000000000000000000000000000000000006020830152604082019050919050565b600061016083016000830151611eeb6000860182611cd5565b506020830151611efe6020860182612038565b506040830151611f116040860182611fb4565b506060830151611f2460c0860182612038565b506080830151611f3760e0860182612038565b5060a0830151611f4b610100860182611b2f565b5060c0830151611f5f610120860182612038565b5060e0830151848203610140860152611f788282611c8d565b9150508091505092915050565b604082016000820151611f9b6000850182611d02565b506020820151611fae6020850182612038565b50505050565b608082016000820151611fca6000850182611c7e565b506020820151611fdd6020850182611ce4565b506040820151611ff06040850182611cf3565b5060608201516120036060850182612038565b50505050565b60408201600082015161201f6000850182611b2f565b5060208201516120326020850182612038565b50505050565b6120418161252e565b82525050565b6120508161252e565b82525050565b600060208201905061206b6000830184611b3e565b92915050565b60006040820190506120866000830185611b3e565b6120936020830184612047565b9392505050565b600060408201905081810360008301526120b48185611c20565b905081810360208301526120c88184611bab565b90509392505050565b60006060820190506120e66000830186611cc6565b6120f36020830185611cc6565b6121006040830184612047565b949350505050565b600060408201905061211d6000830185611cc6565b61212a6020830184612047565b9392505050565b60006060820190506121466000830186611cc6565b6121536020830185612047565b6121606040830184612047565b949350505050565b600060608201905061217d6000830186611d11565b61218a6020830185612047565b6121976040830184612047565b949350505050565b600060208201905081810360008301526121b881611d20565b9050919050565b600060208201905081810360008301526121d881611d60565b9050919050565b600060208201905081810360008301526121f881611da0565b9050919050565b6000602082019050818103600083015261221881611e06565b9050919050565b6000602082019050818103600083015261223881611e6c565b9050919050565b60006040820190506122546000830184611f85565b92915050565b600060208201905061226f6000830184612047565b92915050565b600060408201905061228a6000830185612047565b818103602083015261229c8184611b4d565b90509392505050565b60006080820190506122ba6000830187612047565b81810360208301526122cc8186611b4d565b90506122db6040830185611b3e565b6122e86060830184612047565b95945050505050565b600060a0820190506123066000830188612047565b6123136020830187612047565b81810360408301526123258186611b4d565b90506123346060830185611b3e565b6123416080830184612047565b9695505050505050565b6000604051905081810181811067ffffffffffffffff8211171561236e57600080fd5b8060405250919050565b600067ffffffffffffffff82111561238f57600080fd5b602082029050602081019050919050565b600067ffffffffffffffff8211156123b757600080fd5b601f19601f8301169050602081019050919050565b6000819050602082019050919050565b6000819050602082019050919050565b6000819050602082019050919050565b600081519050919050565b600081519050919050565b600081519050919050565b600081519050919050565b6000602082019050919050565b6000602082019050919050565b6000602082019050919050565b600082825260208201905092915050565b600082825260208201905092915050565b600082825260208201905092915050565b600082825260208201905092915050565b600082825260208201905092915050565b60006124af8261250e565b9050919050565b60008115159050919050565b60008190506124d0826125f7565b919050565b60008190506124e382612604565b919050565b60008190506124f682612611565b919050565b60008190506125098261261e565b919050565b600073ffffffffffffffffffffffffffffffffffffffff82169050919050565b6000819050919050565b60006125438261254a565b9050919050565b60006125558261250e565b9050919050565b6000612567826124c2565b9050919050565b6000612579826124d5565b9050919050565b600061258b826124e8565b9050919050565b600061259d826124fb565b9050919050565b82818337600083830152505050565b60005b838110156125d15780820151818401526020810190506125b6565b838111156125e0576000848401525b50505050565b6000601f19601f8301169050919050565b6009811061260157fe5b50565b6002811061260e57fe5b50565b6002811061261b57fe5b50565b6002811061262857fe5b50565b612634816124a4565b811461263f57600080fd5b50565b61264b816124b6565b811461265657600080fd5b50565b6002811061266657600080fd5b50565b6126728161252e565b811461267d57600080fd5b5056fea365627a7a723158202660da65c404348372f423c6069989769b353f56218f88c067414ce47de6c6656c6578706572696d656e74616cf564736f6c63430005100040",
  "source": "// SPDX-License-Identifier: ISC\npragma solidity ^0.5.0;\npragma experimental ABIEncoderV2;\n\nimport \"@studydefi/money-legos/dydx/contracts/DydxFlashloanBase.sol\";\nimport \"@studydefi/money-legos/dydx/contracts/ICallee.sol\";\nimport {KyberNetworkProxy as IKyberNetworkProxy} from \"@studydefi/money-legos/kyber/contracts/KyberNetworkProxy.sol\";\n\nimport \"@openzeppelin/contracts/token/ERC20/IERC20.sol\";\nimport \"./IUniswapV2Router02.sol\";\nimport \"./IWeth.sol\";\n\ncontract Flashloan is ICallee, DydxFlashloanBase {\n  enum Direction {KyberToUniswap, UniswapToKyber}\n  struct ArbInfo {\n    Direction direction;\n    uint256 repayAmount;\n  }\n\n  event NewArbitrage(Direction direction, uint256 profit, uint256 date);\n\n  IKyberNetworkProxy kyber;\n  IUniswapV2Router02 uniswap;\n  IWeth weth;\n  IERC20 dai;\n  address beneficiary;\n  address constant KYBER_ETH_ADDRESS = 0xEeeeeEeeeEeEeeEeEeEeeEEEeeeeEeeeeeeeEEeE;\n\n  constructor(\n    address kyberAddress,\n    address uniswapAddress,\n    address wethAddress,\n    address daiAddress,\n    address beneficiaryAddress\n  ) public {\n    kyber = IKyberNetworkProxy(kyberAddress);\n    uniswap = IUniswapV2Router02(uniswapAddress);\n    weth = IWeth(wethAddress);\n    dai = IERC20(daiAddress);\n    beneficiary = beneficiaryAddress;\n  }\n\n  // This is the function that will be called postLoan\n  // i.e. Encode the logic to handle your flashloaned funds here\n  function callFunction(\n    address sender,\n    Account.Info memory account,\n    bytes memory data\n  ) public {\n    ArbInfo memory arbInfo = abi.decode(data, (ArbInfo));\n    uint256 balanceDai = dai.balanceOf(address(this));\n\n    // Note that you can ignore the line below\n    // if your dydx account (this contract in this case)\n    // has deposited at least ~2 Wei of assets into the account\n    // to balance out the collaterization ratio\n\n    // require(balanceDai >= arbInfo.repayAmount, \"Not enough funds to repay dydx loan!\");\n\n    if (arbInfo.direction == Direction.KyberToUniswap) {\n      //Buy ETH on Kyber\n      require(dai.approve(address(kyber), balanceDai), \"Could not approve reserve asset sell\");\n      (uint256 expectedRate, ) = kyber.getExpectedRate(dai, IERC20(KYBER_ETH_ADDRESS), balanceDai);\n      kyber.swapTokenToEther(dai, balanceDai, expectedRate);\n\n      //Sell ETH on Uniswap\n      address[] memory path = new address[](2);\n      path[0] = address(weth);\n      path[1] = address(dai);\n      uint256[] memory minOuts = uniswap.getAmountsOut(address(this).balance - 2, path);\n      uniswap.swapExactETHForTokens.value(address(this).balance - 2)(minOuts[0], path, address(this), now);\n    } else {\n      //Buy ETH on Uniswap\n      require(dai.approve(address(uniswap), balanceDai), \"Could not approve reserve asset sell\");\n      address[] memory path = new address[](2);\n      path[0] = address(dai);\n      path[1] = address(weth);\n      uint256[] memory minOuts = uniswap.getAmountsOut(balanceDai, path);\n      uniswap.swapExactTokensForETH(balanceDai, minOuts[0], path, address(this), now);\n\n      //Sell ETH on Kyber\n      (uint256 expectedRate, ) = kyber.getExpectedRate(IERC20(KYBER_ETH_ADDRESS), dai, address(this).balance - 2);\n      kyber.swapEtherToToken.value(address(this).balance - 2)(dai, expectedRate);\n    }\n\n    uint256 balance = dai.balanceOf(address(this));\n    uint256 profit = balance - arbInfo.repayAmount;\n\n    require(profit > 0, \"There is no profit! Reverting\");\n    require(dai.transfer(beneficiary, profit), \"Could not transfer back the profit\");\n    emit NewArbitrage(arbInfo.direction, profit, now);\n  }\n\n  function initateFlashLoan(\n    address _solo,\n    address _token,\n    uint256 _amount,\n    Direction _direction\n  ) external {\n    ISoloMargin solo = ISoloMargin(_solo);\n\n    // Get marketId from token address\n    uint256 marketId = _getMarketIdFromTokenAddress(_solo, _token);\n\n    // Calculate repay amount (_amount + (2 wei))\n    // Approve transfer from\n    uint256 repayAmount = _getRepaymentAmountInternal(_amount);\n    IERC20(_token).approve(_solo, repayAmount);\n\n    // 1. Withdraw $\n    // 2. Call callFunction(...)\n    // 3. Deposit back $\n    Actions.ActionArgs[] memory operations = new Actions.ActionArgs[](3);\n\n    operations[0] = _getWithdrawAction(marketId, _amount);\n    operations[1] = _getCallAction(\n      // Encode MyCustomData for callFunction\n      abi.encode(ArbInfo({direction: _direction, repayAmount: repayAmount}))\n    );\n    operations[2] = _getDepositAction(marketId, repayAmount);\n\n    Account.Info[] memory accountInfos = new Account.Info[](1);\n    accountInfos[0] = _getAccountInfo();\n\n    solo.operate(accountInfos, operations);\n  }\n}\n",
  "sourcePath": "/home/min/Projects/lx/src/github.com/ilovelili/flashloan/contracts/Flashloan.sol",
  "compiler": {
    "name": "solc",
    "version": "0.5.16+commit.9c3226ce.Emscripten.clang"
  },
  "schemaVersion": "3.1.0",
  "updatedAt": "2020-07-18T13:19:15.738Z",
  "networkType": "ethereum",
  "devdoc": {
    "methods": {}
  },
  "userdoc": {
    "methods": {}
  }
}