{
  "contractName": "Flashloan",
  "abi": [
    {
      "inputs": [
        {
          "internalType": "address",
          "name": "kyberAddress",
          "type": "address"
        },
        {
          "internalType": "address",
          "name": "uniswapAddress",
          "type": "address"
        },
        {
          "internalType": "address",
          "name": "wethAddress",
          "type": "address"
        },
        {
          "internalType": "address",
          "name": "daiAddress",
          "type": "address"
        },
        {
          "internalType": "address",
          "name": "beneficiaryAddress",
          "type": "address"
        }
      ],
      "payable": false,
      "stateMutability": "nonpayable",
      "type": "constructor"
    },
    {
      "anonymous": false,
      "inputs": [
        {
          "indexed": true,
          "internalType": "enum Flashloan.Direction",
          "name": "direction",
          "type": "uint8"
        },
        {
          "indexed": true,
          "internalType": "uint256",
          "name": "profit",
          "type": "uint256"
        },
        {
          "indexed": true,
          "internalType": "uint256",
          "name": "date",
          "type": "uint256"
        }
      ],
      "name": "NewArbitrage",
      "type": "event"
    },
    {
      "payable": true,
      "stateMutability": "payable",
      "type": "fallback"
    },
    {
      "constant": false,
      "inputs": [
        {
          "internalType": "address",
          "name": "sender",
          "type": "address"
        },
        {
          "components": [
            {
              "internalType": "address",
              "name": "owner",
              "type": "address"
            },
            {
              "internalType": "uint256",
              "name": "number",
              "type": "uint256"
            }
          ],
          "internalType": "struct Account.Info",
          "name": "account",
          "type": "tuple"
        },
        {
          "internalType": "bytes",
          "name": "data",
          "type": "bytes"
        }
      ],
      "name": "callFunction",
      "outputs": [],
      "payable": false,
      "stateMutability": "nonpayable",
      "type": "function"
    },
    {
      "constant": false,
      "inputs": [
        {
          "internalType": "address",
          "name": "_solo",
          "type": "address"
        },
        {
          "internalType": "address",
          "name": "_token",
          "type": "address"
        },
        {
          "internalType": "uint256",
          "name": "_amount",
          "type": "uint256"
        },
        {
          "internalType": "enum Flashloan.Direction",
          "name": "_direction",
          "type": "uint8"
        }
      ],
      "name": "initateFlashLoan",
      "outputs": [],
      "payable": false,
      "stateMutability": "nonpayable",
      "type": "function"
    }
  ],
  "bytecode": "0x60806040523480156200001157600080fd5b50604051620029643803806200296483398181016040526200003791908101906200019d565b846000806101000a81548173ffffffffffffffffffffffffffffffffffffffff021916908373ffffffffffffffffffffffffffffffffffffffff16021790555083600160006101000a81548173ffffffffffffffffffffffffffffffffffffffff021916908373ffffffffffffffffffffffffffffffffffffffff16021790555082600260006101000a81548173ffffffffffffffffffffffffffffffffffffffff021916908373ffffffffffffffffffffffffffffffffffffffff16021790555081600360006101000a81548173ffffffffffffffffffffffffffffffffffffffff021916908373ffffffffffffffffffffffffffffffffffffffff16021790555080600460006101000a81548173ffffffffffffffffffffffffffffffffffffffff021916908373ffffffffffffffffffffffffffffffffffffffff16021790555050505050506200026d565b600081519050620001978162000253565b92915050565b600080600080600060a08688031215620001b657600080fd5b6000620001c68882890162000186565b9550506020620001d98882890162000186565b9450506040620001ec8882890162000186565b9350506060620001ff8882890162000186565b9250506080620002128882890162000186565b9150509295509295909350565b60006200022c8262000233565b9050919050565b600073ffffffffffffffffffffffffffffffffffffffff82169050919050565b6200025e816200021f565b81146200026a57600080fd5b50565b6126e7806200027d6000396000f3fe6080604052600436106100295760003560e01c80638b4187131461002b578063f7b967a014610054575b005b34801561003757600080fd5b50610052600480360361004d919081019061198b565b61007d565b005b34801561006057600080fd5b5061007b60048036036100769190810190611928565b610e84565b005b610085611560565b818060200190516100999190810190611a5c565b90506000600360009054906101000a900473ffffffffffffffffffffffffffffffffffffffff1673ffffffffffffffffffffffffffffffffffffffff166370a08231306040518263ffffffff1660e01b81526004016100f8919061207b565b60206040518083038186803b15801561011057600080fd5b505afa158015610124573d6000803e3d6000fd5b505050506040513d601f19601f820116820180604052506101489190810190611a85565b9050600061012c420190506000600181111561016057fe5b8360000151600181111561017057fe5b14156106d557600360009054906101000a900473ffffffffffffffffffffffffffffffffffffffff1673ffffffffffffffffffffffffffffffffffffffff1663095ea7b36000809054906101000a900473ffffffffffffffffffffffffffffffffffffffff16846040518363ffffffff1660e01b81526004016101f4929190612096565b602060405180830381600087803b15801561020e57600080fd5b505af1158015610222573d6000803e3d6000fd5b505050506040513d601f19601f820116820180604052506102469190810190611a33565b610285576040517f08c379a000000000000000000000000000000000000000000000000000000000815260040161027c9061220d565b60405180910390fd5b60008060009054906101000a900473ffffffffffffffffffffffffffffffffffffffff1673ffffffffffffffffffffffffffffffffffffffff1663809a9e55600360009054906101000a900473ffffffffffffffffffffffffffffffffffffffff1673eeeeeeeeeeeeeeeeeeeeeeeeeeeeeeeeeeeeeeee866040518463ffffffff1660e01b815260040161031b939291906120f6565b604080518083038186803b15801561033257600080fd5b505afa158015610346573d6000803e3d6000fd5b505050506040513d601f19601f8201168201806040525061036a9190810190611aae565b5090506000809054906101000a900473ffffffffffffffffffffffffffffffffffffffff1673ffffffffffffffffffffffffffffffffffffffff16633bba21dc600360009054906101000a900473ffffffffffffffffffffffffffffffffffffffff1685846040518463ffffffff1660e01b81526004016103ed93929190612156565b602060405180830381600087803b15801561040757600080fd5b505af115801561041b573d6000803e3d6000fd5b505050506040513d601f19601f8201168201806040525061043f9190810190611a85565b50606060026040519080825280602002602001820160405280156104725781602001602082028038833980820191505090505b509050600260009054906101000a900473ffffffffffffffffffffffffffffffffffffffff16816000815181106104a557fe5b602002602001019073ffffffffffffffffffffffffffffffffffffffff16908173ffffffffffffffffffffffffffffffffffffffff1681525050600360009054906101000a900473ffffffffffffffffffffffffffffffffffffffff168160018151811061050f57fe5b602002602001019073ffffffffffffffffffffffffffffffffffffffff16908173ffffffffffffffffffffffffffffffffffffffff16815250506060600160009054906101000a900473ffffffffffffffffffffffffffffffffffffffff1673ffffffffffffffffffffffffffffffffffffffff1663d06ca61f47846040518363ffffffff1660e01b81526004016105a8929190612263565b60006040518083038186803b1580156105c057600080fd5b505afa1580156105d4573d6000803e3d6000fd5b505050506040513d6000823e3d601f19601f820116820180604052506105fd91908101906119f2565b9050600160009054906101000a900473ffffffffffffffffffffffffffffffffffffffff1673ffffffffffffffffffffffffffffffffffffffff16637ff36ab5478360018151811061064b57fe5b60200260200101518530896040518663ffffffff1660e01b81526004016106759493929190612293565b6000604051808303818588803b15801561068e57600080fd5b505af11580156106a2573d6000803e3d6000fd5b50505050506040513d6000823e3d601f19601f820116820180604052506106cc91908101906119f2565b50505050610c31565b600360009054906101000a900473ffffffffffffffffffffffffffffffffffffffff1673ffffffffffffffffffffffffffffffffffffffff1663095ea7b3600160009054906101000a900473ffffffffffffffffffffffffffffffffffffffff16846040518363ffffffff1660e01b8152600401610754929190612096565b602060405180830381600087803b15801561076e57600080fd5b505af1158015610782573d6000803e3d6000fd5b505050506040513d601f19601f820116820180604052506107a69190810190611a33565b6107e5576040517f08c379a00000000000000000000000000000000000000000000000000000000081526004016107dc9061220d565b60405180910390fd5b606060026040519080825280602002602001820160405280156108175781602001602082028038833980820191505090505b509050600360009054906101000a900473ffffffffffffffffffffffffffffffffffffffff168160008151811061084a57fe5b602002602001019073ffffffffffffffffffffffffffffffffffffffff16908173ffffffffffffffffffffffffffffffffffffffff1681525050600260009054906101000a900473ffffffffffffffffffffffffffffffffffffffff16816001815181106108b457fe5b602002602001019073ffffffffffffffffffffffffffffffffffffffff16908173ffffffffffffffffffffffffffffffffffffffff16815250506060600160009054906101000a900473ffffffffffffffffffffffffffffffffffffffff1673ffffffffffffffffffffffffffffffffffffffff1663d06ca61f85846040518363ffffffff1660e01b815260040161094d929190612263565b60006040518083038186803b15801561096557600080fd5b505afa158015610979573d6000803e3d6000fd5b505050506040513d6000823e3d601f19601f820116820180604052506109a291908101906119f2565b9050600160009054906101000a900473ffffffffffffffffffffffffffffffffffffffff1673ffffffffffffffffffffffffffffffffffffffff166318cbafe585836001815181106109f057fe5b60200260200101518530886040518663ffffffff1660e01b8152600401610a1b9594939291906122df565b600060405180830381600087803b158015610a3557600080fd5b505af1158015610a49573d6000803e3d6000fd5b505050506040513d6000823e3d601f19601f82011682018060405250610a7291908101906119f2565b5060008060009054906101000a900473ffffffffffffffffffffffffffffffffffffffff1673ffffffffffffffffffffffffffffffffffffffff1663809a9e5573eeeeeeeeeeeeeeeeeeeeeeeeeeeeeeeeeeeeeeee600360009054906101000a900473ffffffffffffffffffffffffffffffffffffffff16476040518463ffffffff1660e01b8152600401610b09939291906120f6565b604080518083038186803b158015610b2057600080fd5b505afa158015610b34573d6000803e3d6000fd5b505050506040513d601f19601f82011682018060405250610b589190810190611aae565b5090506000809054906101000a900473ffffffffffffffffffffffffffffffffffffffff1673ffffffffffffffffffffffffffffffffffffffff16637a2a045647600360009054906101000a900473ffffffffffffffffffffffffffffffffffffffff16846040518463ffffffff1660e01b8152600401610bda92919061212d565b6020604051808303818588803b158015610bf357600080fd5b505af1158015610c07573d6000803e3d6000fd5b50505050506040513d601f19601f82011682018060405250610c2c9190810190611a85565b505050505b600360009054906101000a900473ffffffffffffffffffffffffffffffffffffffff1673ffffffffffffffffffffffffffffffffffffffff166370a08231306040518263ffffffff1660e01b8152600401610c8c919061207b565b60206040518083038186803b158015610ca457600080fd5b505afa158015610cb8573d6000803e3d6000fd5b505050506040513d601f19601f82011682018060405250610cdc9190810190611a85565b915060008360200151830390506000811015610d2d576040517f08c379a0000000000000000000000000000000000000000000000000000000008152600401610d24906121ad565b60405180910390fd5b600360009054906101000a900473ffffffffffffffffffffffffffffffffffffffff1673ffffffffffffffffffffffffffffffffffffffff1663a9059cbb600460009054906101000a900473ffffffffffffffffffffffffffffffffffffffff16836040518363ffffffff1660e01b8152600401610dac929190612096565b602060405180830381600087803b158015610dc657600080fd5b505af1158015610dda573d6000803e3d6000fd5b505050506040513d601f19601f82011682018060405250610dfe9190810190611a33565b610e3d576040517f08c379a0000000000000000000000000000000000000000000000000000000008152600401610e34906121ed565b60405180910390fd5b428185600001516001811115610e4f57fe5b7fa89b78c8d1240154beaf4b865d2d7cb794ac0f358c618aef3de102cf4a4ee42d60405160405180910390a450505050505050565b6000610e9085856110e7565b90506000610e9d84611299565b90508473ffffffffffffffffffffffffffffffffffffffff1663095ea7b387836040518363ffffffff1660e01b8152600401610eda929190612096565b602060405180830381600087803b158015610ef457600080fd5b505af1158015610f08573d6000803e3d6000fd5b505050506040513d601f19601f82011682018060405250610f2c9190810190611a33565b5060606003604051908082528060200260200182016040528015610f6a57816020015b610f57611585565b815260200190600190039081610f4f5790505b509050610f7783866112b6565b81600081518110610f8457fe5b6020026020010181905250610fd66040518060400160405280866001811115610fa957fe5b815260200184815250604051602001610fc2919061222d565b60405160208183030381529060405261136f565b81600181518110610fe357fe5b6020026020010181905250610ff88383611419565b8160028151811061100557fe5b60200260200101819052506060600160405190808252806020026020018201604052801561104d57816020015b61103a6115f1565b8152602001906001900390816110325790505b5090506110586114d2565b8160008151811061106557fe5b60200260200101819052508773ffffffffffffffffffffffffffffffffffffffff1663a67a6a4582846040518363ffffffff1660e01b81526004016110ab9291906120bf565b600060405180830381600087803b1580156110c557600080fd5b505af11580156110d9573d6000803e3d6000fd5b505050505050505050505050565b60008083905060008173ffffffffffffffffffffffffffffffffffffffff1663295c39a56040518163ffffffff1660e01b815260040160206040518083038186803b15801561113557600080fd5b505afa158015611149573d6000803e3d6000fd5b505050506040513d601f19601f8201168201806040525061116d9190810190611a85565b9050600080600090505b82811015611257578373ffffffffffffffffffffffffffffffffffffffff1663062bd3e9826040518263ffffffff1660e01b81526004016111b89190612248565b60206040518083038186803b1580156111d057600080fd5b505afa1580156111e4573d6000803e3d6000fd5b505050506040513d601f19601f8201168201806040525061120891908101906118ff565b91508573ffffffffffffffffffffffffffffffffffffffff168273ffffffffffffffffffffffffffffffffffffffff16141561124a5780945050505050611293565b8080600101915050611177565b506040517f08c379a000000000000000000000000000000000000000000000000000000000815260040161128a906121cd565b60405180910390fd5b92915050565b60006112af60028361150b90919063ffffffff16565b9050919050565b6112be611621565b604051806101000160405280600160088111156112d757fe5b81526020016000815260200160405180608001604052806000151581526020016000600181111561130457fe5b81526020016000600181111561131657fe5b8152602001858152508152602001848152602001600081526020013073ffffffffffffffffffffffffffffffffffffffff1681526020016000815260200160405180602001604052806000815250815250905092915050565b611377611621565b60405180610100016040528060088081111561138f57fe5b8152602001600081526020016040518060800160405280600015158152602001600060018111156113bc57fe5b8152602001600060018111156113ce57fe5b81526020016000815250815260200160008152602001600081526020013073ffffffffffffffffffffffffffffffffffffffff16815260200160008152602001838152509050919050565b611421611621565b6040518061010001604052806000600881111561143a57fe5b81526020016000815260200160405180608001604052806001151581526020016000600181111561146757fe5b81526020016000600181111561147957fe5b8152602001858152508152602001848152602001600081526020013073ffffffffffffffffffffffffffffffffffffffff1681526020016000815260200160405180602001604052806000815250815250905092915050565b6114da61168d565b60405180604001604052803073ffffffffffffffffffffffffffffffffffffffff1681526020016001815250905090565b600080828401905083811015611556576040517f08c379a000000000000000000000000000000000000000000000000000000000815260040161154d9061218d565b60405180910390fd5b8091505092915050565b60405180604001604052806000600181111561157857fe5b8152602001600081525090565b6040518061010001604052806000600881111561159e57fe5b8152602001600081526020016115b26116bd565b81526020016000815260200160008152602001600073ffffffffffffffffffffffffffffffffffffffff16815260200160008152602001606081525090565b6040518060400160405280600073ffffffffffffffffffffffffffffffffffffffff168152602001600081525090565b6040518061010001604052806000600881111561163a57fe5b81526020016000815260200161164e6116bd565b81526020016000815260200160008152602001600073ffffffffffffffffffffffffffffffffffffffff16815260200160008152602001606081525090565b6040518060400160405280600073ffffffffffffffffffffffffffffffffffffffff168152602001600081525090565b6040518060800160405280600015158152602001600060018111156116de57fe5b8152602001600060018111156116f057fe5b8152602001600081525090565b60008135905061170c8161264f565b92915050565b6000815190506117218161264f565b92915050565b600082601f83011261173857600080fd5b815161174b61174682612366565b612339565b9150818183526020840193506020810190508385602084028201111561177057600080fd5b60005b838110156117a0578161178688826118ea565b845260208401935060208301925050600181019050611773565b5050505092915050565b6000815190506117b981612666565b92915050565b600082601f8301126117d057600080fd5b81356117e36117de8261238e565b612339565b915080825260208301602083018583830111156117ff57600080fd5b61180a8382846125c8565b50505092915050565b6000813590506118228161267d565b92915050565b6000815190506118378161267d565b92915050565b60006040828403121561184f57600080fd5b6118596040612339565b9050600061186984828501611828565b600083015250602061187d848285016118ea565b60208301525092915050565b60006040828403121561189b57600080fd5b6118a56040612339565b905060006118b5848285016116fd565b60008301525060206118c9848285016118d5565b60208301525092915050565b6000813590506118e48161268d565b92915050565b6000815190506118f98161268d565b92915050565b60006020828403121561191157600080fd5b600061191f84828501611712565b91505092915050565b6000806000806080858703121561193e57600080fd5b600061194c878288016116fd565b945050602061195d878288016116fd565b935050604061196e878288016118d5565b925050606061197f87828801611813565b91505092959194509250565b6000806000608084860312156119a057600080fd5b60006119ae868287016116fd565b93505060206119bf86828701611889565b925050606084013567ffffffffffffffff8111156119dc57600080fd5b6119e8868287016117bf565b9150509250925092565b600060208284031215611a0457600080fd5b600082015167ffffffffffffffff811115611a1e57600080fd5b611a2a84828501611727565b91505092915050565b600060208284031215611a4557600080fd5b6000611a53848285016117aa565b91505092915050565b600060408284031215611a6e57600080fd5b6000611a7c8482850161183d565b91505092915050565b600060208284031215611a9757600080fd5b6000611aa5848285016118ea565b91505092915050565b60008060408385031215611ac157600080fd5b6000611acf858286016118ea565b9250506020611ae0858286016118ea565b9150509250929050565b6000611af68383611b3d565b60208301905092915050565b6000611b0e8383611ef7565b905092915050565b6000611b22838361202e565b60408301905092915050565b611b3781612526565b82525050565b611b4681612492565b82525050565b611b5581612492565b82525050565b6000611b66826123ea565b611b70818561243d565b9350611b7b836123ba565b8060005b83811015611bac578151611b938882611aea565b9750611b9e83612416565b925050600181019050611b7f565b5085935050505092915050565b6000611bc4826123f5565b611bce818561244e565b935083602082028501611be0856123ca565b8060005b85811015611c1c5784840389528151611bfd8582611b02565b9450611c0883612423565b925060208a01995050600181019050611be4565b50829750879550505050505092915050565b6000611c3982612400565b611c43818561245f565b9350611c4e836123da565b8060005b83811015611c7f578151611c668882611b16565b9750611c7183612430565b925050600181019050611c52565b5085935050505092915050565b611c95816124a4565b82525050565b6000611ca68261240b565b611cb08185612470565b9350611cc08185602086016125d7565b611cc98161260a565b840191505092915050565b611cdd81612538565b82525050565b611cec8161255c565b82525050565b611cfb8161256e565b82525050565b611d0a81612580565b82525050565b611d1981612592565b82525050565b6000611d2c601b83612481565b91507f536166654d6174683a206164646974696f6e206f766572666c6f7700000000006000830152602082019050919050565b6000611d6c602483612481565b91507f4e6f7420656e6f7567682066756e647320746f2072657061792064796478206c60008301527f6f616e21000000000000000000000000000000000000000000000000000000006020830152604082019050919050565b6000611dd2602483612481565b91507f4e6f206d61726b6574496420666f756e6420666f722070726f7669646564207460008301527f6f6b656e000000000000000000000000000000000000000000000000000000006020830152604082019050919050565b6000611e38602283612481565b91507f436f756c64206e6f74207472616e73666572206261636b207468652070726f6660008301527f69740000000000000000000000000000000000000000000000000000000000006020830152604082019050919050565b6000611e9e602483612481565b91507f436f756c64206e6f7420617070726f766520726573657276652061737365742060008301527f73656c6c000000000000000000000000000000000000000000000000000000006020830152604082019050919050565b600061016083016000830151611f106000860182611ce3565b506020830151611f23602086018261205d565b506040830151611f366040860182611fd9565b506060830151611f4960c086018261205d565b506080830151611f5c60e086018261205d565b5060a0830151611f70610100860182611b3d565b5060c0830151611f8461012086018261205d565b5060e0830151848203610140860152611f9d8282611c9b565b9150508091505092915050565b604082016000820151611fc06000850182611d10565b506020820151611fd3602085018261205d565b50505050565b608082016000820151611fef6000850182611c8c565b5060208201516120026020850182611cf2565b5060408201516120156040850182611d01565b506060820151612028606085018261205d565b50505050565b6040820160008201516120446000850182611b3d565b506020820151612057602085018261205d565b50505050565b6120668161251c565b82525050565b6120758161251c565b82525050565b60006020820190506120906000830184611b2e565b92915050565b60006040820190506120ab6000830185611b4c565b6120b8602083018461206c565b9392505050565b600060408201905081810360008301526120d98185611c2e565b905081810360208301526120ed8184611bb9565b90509392505050565b600060608201905061210b6000830186611cd4565b6121186020830185611cd4565b612125604083018461206c565b949350505050565b60006040820190506121426000830185611cd4565b61214f602083018461206c565b9392505050565b600060608201905061216b6000830186611cd4565b612178602083018561206c565b612185604083018461206c565b949350505050565b600060208201905081810360008301526121a681611d1f565b9050919050565b600060208201905081810360008301526121c681611d5f565b9050919050565b600060208201905081810360008301526121e681611dc5565b9050919050565b6000602082019050818103600083015261220681611e2b565b9050919050565b6000602082019050818103600083015261222681611e91565b9050919050565b60006040820190506122426000830184611faa565b92915050565b600060208201905061225d600083018461206c565b92915050565b6000604082019050612278600083018561206c565b818103602083015261228a8184611b5b565b90509392505050565b60006080820190506122a8600083018761206c565b81810360208301526122ba8186611b5b565b90506122c96040830185611b2e565b6122d6606083018461206c565b95945050505050565b600060a0820190506122f4600083018861206c565b612301602083018761206c565b81810360408301526123138186611b5b565b90506123226060830185611b2e565b61232f608083018461206c565b9695505050505050565b6000604051905081810181811067ffffffffffffffff8211171561235c57600080fd5b8060405250919050565b600067ffffffffffffffff82111561237d57600080fd5b602082029050602081019050919050565b600067ffffffffffffffff8211156123a557600080fd5b601f19601f8301169050602081019050919050565b6000819050602082019050919050565b6000819050602082019050919050565b6000819050602082019050919050565b600081519050919050565b600081519050919050565b600081519050919050565b600081519050919050565b6000602082019050919050565b6000602082019050919050565b6000602082019050919050565b600082825260208201905092915050565b600082825260208201905092915050565b600082825260208201905092915050565b600082825260208201905092915050565b600082825260208201905092915050565b600061249d826124fc565b9050919050565b60008115159050919050565b60008190506124be8261261b565b919050565b60008190506124d182612628565b919050565b60008190506124e482612635565b919050565b60008190506124f782612642565b919050565b600073ffffffffffffffffffffffffffffffffffffffff82169050919050565b6000819050919050565b6000612531826125a4565b9050919050565b60006125438261254a565b9050919050565b6000612555826124fc565b9050919050565b6000612567826124b0565b9050919050565b6000612579826124c3565b9050919050565b600061258b826124d6565b9050919050565b600061259d826124e9565b9050919050565b60006125af826125b6565b9050919050565b60006125c1826124fc565b9050919050565b82818337600083830152505050565b60005b838110156125f55780820151818401526020810190506125da565b83811115612604576000848401525b50505050565b6000601f19601f8301169050919050565b6009811061262557fe5b50565b6002811061263257fe5b50565b6002811061263f57fe5b50565b6002811061264c57fe5b50565b61265881612492565b811461266357600080fd5b50565b61266f816124a4565b811461267a57600080fd5b50565b6002811061268a57600080fd5b50565b6126968161251c565b81146126a157600080fd5b5056fea365627a7a72315820190ded18ad6d5a468bd2380d294f03bde4e2e0411ade445805a2b2d3376026c06c6578706572696d656e74616cf564736f6c63430005100040",
  "source": "// SPDX-License-Identifier: ISC\npragma solidity ^0.5.0;\npragma experimental ABIEncoderV2;\n\nimport \"@studydefi/money-legos/dydx/contracts/DydxFlashloanBase.sol\";\nimport \"@studydefi/money-legos/dydx/contracts/ICallee.sol\";\nimport {KyberNetworkProxy as IKyberNetworkProxy} from \"@studydefi/money-legos/kyber/contracts/KyberNetworkProxy.sol\";\n\nimport \"@openzeppelin/contracts/token/ERC20/IERC20.sol\";\nimport \"./IUniswapV2Router02.sol\";\nimport \"./IWeth.sol\";\n\ncontract Flashloan is ICallee, DydxFlashloanBase {\n  enum Direction {KyberToUniswap, UniswapToKyber}\n  struct ArbInfo {\n    Direction direction;\n    uint256 repayAmount;\n  }\n\n  event NewArbitrage(Direction indexed direction, uint256 indexed profit, uint256 indexed date);\n\n  // events for debugging\n  // event GetMinOuts(uint256 indexed minOut1, uint256 indexed minOut2);\n\n  IKyberNetworkProxy kyber;\n  IUniswapV2Router02 uniswap;\n  IWeth weth;\n  IERC20 dai;\n  address beneficiary;\n  address constant KYBER_ETH_ADDRESS = 0xEeeeeEeeeEeEeeEeEeEeeEEEeeeeEeeeeeeeEEeE;\n\n  constructor(\n    address kyberAddress,\n    address uniswapAddress,\n    address wethAddress,\n    address daiAddress,\n    address beneficiaryAddress\n  ) public {\n    kyber = IKyberNetworkProxy(kyberAddress);\n    uniswap = IUniswapV2Router02(uniswapAddress);\n    weth = IWeth(wethAddress);\n    dai = IERC20(daiAddress);\n    beneficiary = beneficiaryAddress;\n  }\n\n  // This is the function that will be called postLoan\n  // i.e. Encode the logic to handle your flashloaned funds here\n  function callFunction(\n    address sender,\n    Account.Info memory account,\n    bytes memory data\n  ) public {\n    ArbInfo memory arbInfo = abi.decode(data, (ArbInfo));\n    uint256 balanceDai = dai.balanceOf(address(this));\n    uint256 deadline = now + 300;\n\n    if (arbInfo.direction == Direction.KyberToUniswap) {\n      // Buy ETH from Kyber\n      require(dai.approve(address(kyber), balanceDai), \"Could not approve reserve asset sell\");\n      (uint256 expectedRate, ) = kyber.getExpectedRate(dai, IERC20(KYBER_ETH_ADDRESS), balanceDai);\n      kyber.swapTokenToEther(dai, balanceDai, expectedRate);\n\n      // Sell ETH to Uniswap\n      address[] memory path = new address[](2);\n      path[0] = address(weth);\n      path[1] = address(dai);\n\n      // https://uniswap.org/docs/v2/smart-contracts/library#getamountsout\n      // Given an input asset amount and an array of token addresses, calculates all subsequent maximum output token amounts\n      uint256[] memory minOuts = uniswap.getAmountsOut(address(this).balance, path);\n\n      // https://uniswap.org/docs/v2/smart-contracts/router02/\n      // Swaps an exact amount of ETH for as many output tokens as possible, along the route determined by the path.\n      // The first element of path must be WETH, the last is the output token\n      uniswap.swapExactETHForTokens.value(address(this).balance)(minOuts[1], path, address(this), deadline);\n    } else {\n      // Buy ETH from Uniswap\n      require(dai.approve(address(uniswap), balanceDai), \"Could not approve reserve asset sell\");\n      address[] memory path = new address[](2);\n      path[0] = address(dai);\n      path[1] = address(weth);\n      uint256[] memory minOuts = uniswap.getAmountsOut(balanceDai, path);\n      uniswap.swapExactTokensForETH(balanceDai, minOuts[1], path, address(this), deadline);\n      // Sell ETH to Kyber\n      (uint256 expectedRate, ) = kyber.getExpectedRate(IERC20(KYBER_ETH_ADDRESS), dai, address(this).balance);\n      kyber.swapEtherToToken.value(address(this).balance)(dai, expectedRate);\n    }\n\n    balanceDai = dai.balanceOf(address(this));\n    uint256 profit = balanceDai - arbInfo.repayAmount;\n    require(profit >= 0, \"Not enough funds to repay dydx loan!\");\n    require(dai.transfer(beneficiary, profit), \"Could not transfer back the profit\");\n\n    emit NewArbitrage(arbInfo.direction, profit, now);\n  }\n\n  function initateFlashLoan(\n    address _solo,\n    address _token,\n    uint256 _amount,\n    Direction _direction\n  ) external {\n    // Get marketId from token address\n    uint256 marketId = _getMarketIdFromTokenAddress(_solo, _token);\n\n    // Calculate repay amount (_amount + (2 wei))\n    // Approve transfer from\n    uint256 repayAmount = _getRepaymentAmountInternal(_amount);\n    IERC20(_token).approve(_solo, repayAmount);\n\n    // 1. Withdraw $\n    // 2. Call callFunction(...)\n    // 3. Deposit back $\n    Actions.ActionArgs[] memory operations = new Actions.ActionArgs[](3);\n\n    operations[0] = _getWithdrawAction(marketId, _amount);\n    operations[1] = _getCallAction(\n      // Encode MyCustomData for callFunction\n      abi.encode(ArbInfo({direction: _direction, repayAmount: repayAmount}))\n    );\n    operations[2] = _getDepositAction(marketId, repayAmount);\n\n    Account.Info[] memory accountInfos = new Account.Info[](1);\n    accountInfos[0] = _getAccountInfo();\n\n    ISoloMargin(_solo).operate(accountInfos, operations);\n  }\n\n  // Add payable function to be able to receive ETH from Uniswap / Kyber\n  function() external payable {}\n}\n",
  "sourcePath": "/home/min/Projects/lx/src/github.com/ilovelili/flashloan/contracts/Flashloan.sol",
  "compiler": {
    "name": "solc",
    "version": "0.5.16+commit.9c3226ce.Emscripten.clang"
  },
  "schemaVersion": "3.1.0",
  "updatedAt": "2020-07-26T10:19:38.380Z",
  "devdoc": {
    "methods": {}
  },
  "userdoc": {
    "methods": {}
  }
}