{
  "contractName": "TestArbitrage",
  "abi": [
    {
      "inputs": [
        {
          "internalType": "address",
          "name": "kyberAddress",
          "type": "address"
        },
        {
          "internalType": "address",
          "name": "uniswapAddress",
          "type": "address"
        },
        {
          "internalType": "address",
          "name": "wethAddress",
          "type": "address"
        },
        {
          "internalType": "address",
          "name": "daiAddress",
          "type": "address"
        },
        {
          "internalType": "address",
          "name": "daiFaucetAddress",
          "type": "address"
        },
        {
          "internalType": "address",
          "name": "beneficiaryAddress",
          "type": "address"
        }
      ],
      "payable": false,
      "stateMutability": "nonpayable",
      "type": "constructor"
    },
    {
      "anonymous": false,
      "inputs": [
        {
          "indexed": true,
          "internalType": "uint256",
          "name": "balanceDai",
          "type": "uint256"
        },
        {
          "indexed": true,
          "internalType": "uint256",
          "name": "repayAmount",
          "type": "uint256"
        },
        {
          "indexed": true,
          "internalType": "enum TestArbitrage.Direction",
          "name": "direction",
          "type": "uint8"
        }
      ],
      "name": "CallFunctionHit",
      "type": "event"
    },
    {
      "anonymous": false,
      "inputs": [
        {
          "indexed": true,
          "internalType": "uint256",
          "name": "marketId",
          "type": "uint256"
        }
      ],
      "name": "GetMarketID",
      "type": "event"
    },
    {
      "anonymous": false,
      "inputs": [
        {
          "indexed": true,
          "internalType": "uint256",
          "name": "repayAmount",
          "type": "uint256"
        }
      ],
      "name": "GetRepayAmount",
      "type": "event"
    },
    {
      "anonymous": false,
      "inputs": [
        {
          "indexed": false,
          "internalType": "enum TestArbitrage.Direction",
          "name": "direction",
          "type": "uint8"
        },
        {
          "indexed": false,
          "internalType": "uint256",
          "name": "profit",
          "type": "uint256"
        },
        {
          "indexed": false,
          "internalType": "uint256",
          "name": "date",
          "type": "uint256"
        }
      ],
      "name": "NewArbitrage",
      "type": "event"
    },
    {
      "constant": false,
      "inputs": [
        {
          "internalType": "address",
          "name": "sender",
          "type": "address"
        },
        {
          "components": [
            {
              "internalType": "address",
              "name": "owner",
              "type": "address"
            },
            {
              "internalType": "uint256",
              "name": "number",
              "type": "uint256"
            }
          ],
          "internalType": "struct Account.Info",
          "name": "account",
          "type": "tuple"
        },
        {
          "internalType": "bytes",
          "name": "data",
          "type": "bytes"
        }
      ],
      "name": "callFunction",
      "outputs": [],
      "payable": false,
      "stateMutability": "nonpayable",
      "type": "function"
    },
    {
      "constant": false,
      "inputs": [
        {
          "internalType": "address",
          "name": "_solo",
          "type": "address"
        },
        {
          "internalType": "address",
          "name": "_token",
          "type": "address"
        },
        {
          "internalType": "uint256",
          "name": "_amount",
          "type": "uint256"
        },
        {
          "internalType": "enum TestArbitrage.Direction",
          "name": "_direction",
          "type": "uint8"
        }
      ],
      "name": "initiateFlashloan",
      "outputs": [],
      "payable": false,
      "stateMutability": "nonpayable",
      "type": "function"
    }
  ],
  "bytecode": "0x60806040523480156200001157600080fd5b50604051620017f3380380620017f3833981810160405262000037919081019062000201565b856000806101000a81548173ffffffffffffffffffffffffffffffffffffffff021916908373ffffffffffffffffffffffffffffffffffffffff16021790555084600160006101000a81548173ffffffffffffffffffffffffffffffffffffffff021916908373ffffffffffffffffffffffffffffffffffffffff16021790555083600260006101000a81548173ffffffffffffffffffffffffffffffffffffffff021916908373ffffffffffffffffffffffffffffffffffffffff16021790555082600360006101000a81548173ffffffffffffffffffffffffffffffffffffffff021916908373ffffffffffffffffffffffffffffffffffffffff160217905550600460009054906101000a900473ffffffffffffffffffffffffffffffffffffffff16600460006101000a81548173ffffffffffffffffffffffffffffffffffffffff021916908373ffffffffffffffffffffffffffffffffffffffff16021790555080600560006101000a81548173ffffffffffffffffffffffffffffffffffffffff021916908373ffffffffffffffffffffffffffffffffffffffff160217905550505050505050620002e5565b600081519050620001fb81620002cb565b92915050565b60008060008060008060c087890312156200021b57600080fd5b60006200022b89828a01620001ea565b96505060206200023e89828a01620001ea565b95505060406200025189828a01620001ea565b94505060606200026489828a01620001ea565b93505060806200027789828a01620001ea565b92505060a06200028a89828a01620001ea565b9150509295509295509295565b6000620002a482620002ab565b9050919050565b600073ffffffffffffffffffffffffffffffffffffffff82169050919050565b620002d68162000297565b8114620002e257600080fd5b50565b6114fe80620002f56000396000f3fe608060405234801561001057600080fd5b50600436106100365760003560e01c80638b4187131461003b578063c013147614610057575b600080fd5b61005560048036036100509190810190610c6d565b610073565b005b610071600480360361006c9190810190610c0a565b610189565b005b61007b6108c5565b8180602001905161008f9190810190610cfd565b90506000600360009054906101000a900473ffffffffffffffffffffffffffffffffffffffff1673ffffffffffffffffffffffffffffffffffffffff166370a08231306040518263ffffffff1660e01b81526004016100ee919061111a565b60206040518083038186803b15801561010657600080fd5b505afa15801561011a573d6000803e3d6000fd5b505050506040513d601f19601f8201168201806040525061013e9190810190610d26565b90508160000151600181111561015057fe5b8260200151827f85087d8bc28d831ff0bde8cdbd09fc78a3346d11120270b9b4a5098096abe95e60405160405180910390a45050505050565b6000610195858561044c565b9050807fbdc897348665ce5191a212bb4ea1824e75b06ee341188a222f980a185224121b60405160405180910390a260006101cf846105fe565b9050807f71f13a74ceeef12b195797c22d39486aa2cef79b1a5e66259f3ad872542baca860405160405180910390a28473ffffffffffffffffffffffffffffffffffffffff1663095ea7b387836040518363ffffffff1660e01b8152600401610239929190611135565b602060405180830381600087803b15801561025357600080fd5b505af1158015610267573d6000803e3d6000fd5b505050506040513d601f19601f8201168201806040525061028b9190810190610cd4565b50606060036040519080825280602002602001820160405280156102c957816020015b6102b66108ea565b8152602001906001900390816102ae5790505b5090506102d6838661061b565b816000815181106102e357fe5b6020026020010181905250610335604051806040016040528086600181111561030857fe5b81526020018481525060405160200161032191906111d5565b6040516020818303038152906040526106d4565b8160018151811061034257fe5b6020026020010181905250610357838361077e565b8160028151811061036457fe5b6020026020010181905250606060016040519080825280602002602001820160405280156103ac57816020015b610399610956565b8152602001906001900390816103915790505b5090506103b7610837565b816000815181106103c457fe5b602002602001018190525060008890508073ffffffffffffffffffffffffffffffffffffffff1663a67a6a4583856040518363ffffffff1660e01b815260040161040f92919061115e565b600060405180830381600087803b15801561042957600080fd5b505af115801561043d573d6000803e3d6000fd5b50505050505050505050505050565b60008083905060008173ffffffffffffffffffffffffffffffffffffffff1663295c39a56040518163ffffffff1660e01b815260040160206040518083038186803b15801561049a57600080fd5b505afa1580156104ae573d6000803e3d6000fd5b505050506040513d601f19601f820116820180604052506104d29190810190610d26565b9050600080600090505b828110156105bc578373ffffffffffffffffffffffffffffffffffffffff1663062bd3e9826040518263ffffffff1660e01b815260040161051d91906111f0565b60206040518083038186803b15801561053557600080fd5b505afa158015610549573d6000803e3d6000fd5b505050506040513d601f19601f8201168201806040525061056d9190810190610be1565b91508573ffffffffffffffffffffffffffffffffffffffff168273ffffffffffffffffffffffffffffffffffffffff1614156105af57809450505050506105f8565b80806001019150506104dc565b506040517f08c379a00000000000000000000000000000000000000000000000000000000081526004016105ef906111b5565b60405180910390fd5b92915050565b600061061460028361087090919063ffffffff16565b9050919050565b610623610986565b6040518061010001604052806001600881111561063c57fe5b81526020016000815260200160405180608001604052806000151581526020016000600181111561066957fe5b81526020016000600181111561067b57fe5b8152602001858152508152602001848152602001600081526020013073ffffffffffffffffffffffffffffffffffffffff1681526020016000815260200160405180602001604052806000815250815250905092915050565b6106dc610986565b6040518061010001604052806008808111156106f457fe5b81526020016000815260200160405180608001604052806000151581526020016000600181111561072157fe5b81526020016000600181111561073357fe5b81526020016000815250815260200160008152602001600081526020013073ffffffffffffffffffffffffffffffffffffffff16815260200160008152602001838152509050919050565b610786610986565b6040518061010001604052806000600881111561079f57fe5b8152602001600081526020016040518060800160405280600115158152602001600060018111156107cc57fe5b8152602001600060018111156107de57fe5b8152602001858152508152602001848152602001600081526020013073ffffffffffffffffffffffffffffffffffffffff1681526020016000815260200160405180602001604052806000815250815250905092915050565b61083f6109f2565b60405180604001604052803073ffffffffffffffffffffffffffffffffffffffff1681526020016001815250905090565b6000808284019050838110156108bb576040517f08c379a00000000000000000000000000000000000000000000000000000000081526004016108b290611195565b60405180910390fd5b8091505092915050565b6040518060400160405280600060018111156108dd57fe5b8152602001600081525090565b6040518061010001604052806000600881111561090357fe5b815260200160008152602001610917610a22565b81526020016000815260200160008152602001600073ffffffffffffffffffffffffffffffffffffffff16815260200160008152602001606081525090565b6040518060400160405280600073ffffffffffffffffffffffffffffffffffffffff168152602001600081525090565b6040518061010001604052806000600881111561099f57fe5b8152602001600081526020016109b3610a22565b81526020016000815260200160008152602001600073ffffffffffffffffffffffffffffffffffffffff16815260200160008152602001606081525090565b6040518060400160405280600073ffffffffffffffffffffffffffffffffffffffff168152602001600081525090565b604051806080016040528060001515815260200160006001811115610a4357fe5b815260200160006001811115610a5557fe5b8152602001600081525090565b600081359050610a7181611466565b92915050565b600081519050610a8681611466565b92915050565b600081519050610a9b8161147d565b92915050565b600082601f830112610ab257600080fd5b8135610ac5610ac082611238565b61120b565b91508082526020830160208301858383011115610ae157600080fd5b610aec8382846113df565b50505092915050565b600081359050610b0481611494565b92915050565b600081519050610b1981611494565b92915050565b600060408284031215610b3157600080fd5b610b3b604061120b565b90506000610b4b84828501610b0a565b6000830152506020610b5f84828501610bcc565b60208301525092915050565b600060408284031215610b7d57600080fd5b610b87604061120b565b90506000610b9784828501610a62565b6000830152506020610bab84828501610bb7565b60208301525092915050565b600081359050610bc6816114a4565b92915050565b600081519050610bdb816114a4565b92915050565b600060208284031215610bf357600080fd5b6000610c0184828501610a77565b91505092915050565b60008060008060808587031215610c2057600080fd5b6000610c2e87828801610a62565b9450506020610c3f87828801610a62565b9350506040610c5087828801610bb7565b9250506060610c6187828801610af5565b91505092959194509250565b600080600060808486031215610c8257600080fd5b6000610c9086828701610a62565b9350506020610ca186828701610b6b565b925050606084013567ffffffffffffffff811115610cbe57600080fd5b610cca86828701610aa1565b9150509250925092565b600060208284031215610ce657600080fd5b6000610cf484828501610a8c565b91505092915050565b600060408284031215610d0f57600080fd5b6000610d1d84828501610b1f565b91505092915050565b600060208284031215610d3857600080fd5b6000610d4684828501610bcc565b91505092915050565b6000610d5b8383610f96565b905092915050565b6000610d6f83836110cd565b60408301905092915050565b610d8481611303565b82525050565b610d9381611303565b82525050565b6000610da482611284565b610dae81856112bf565b935083602082028501610dc085611264565b8060005b85811015610dfc5784840389528151610ddd8582610d4f565b9450610de8836112a5565b925060208a01995050600181019050610dc4565b50829750879550505050505092915050565b6000610e198261128f565b610e2381856112d0565b9350610e2e83611274565b8060005b83811015610e5f578151610e468882610d63565b9750610e51836112b2565b925050600181019050610e32565b5085935050505092915050565b610e7581611315565b82525050565b6000610e868261129a565b610e9081856112e1565b9350610ea08185602086016113ee565b610ea981611421565b840191505092915050565b610ebd81611397565b82525050565b610ecc816113a9565b82525050565b610edb816113bb565b82525050565b610eea816113cd565b82525050565b6000610efd601b836112f2565b91507f536166654d6174683a206164646974696f6e206f766572666c6f7700000000006000830152602082019050919050565b6000610f3d6024836112f2565b91507f4e6f206d61726b6574496420666f756e6420666f722070726f7669646564207460008301527f6f6b656e000000000000000000000000000000000000000000000000000000006020830152604082019050919050565b600061016083016000830151610faf6000860182610eb4565b506020830151610fc260208601826110fc565b506040830151610fd56040860182611078565b506060830151610fe860c08601826110fc565b506080830151610ffb60e08601826110fc565b5060a083015161100f610100860182610d7b565b5060c08301516110236101208601826110fc565b5060e083015184820361014086015261103c8282610e7b565b9150508091505092915050565b60408201600082015161105f6000850182610ee1565b50602082015161107260208501826110fc565b50505050565b60808201600082015161108e6000850182610e6c565b5060208201516110a16020850182610ec3565b5060408201516110b46040850182610ed2565b5060608201516110c760608501826110fc565b50505050565b6040820160008201516110e36000850182610d7b565b5060208201516110f660208501826110fc565b50505050565b6111058161138d565b82525050565b6111148161138d565b82525050565b600060208201905061112f6000830184610d8a565b92915050565b600060408201905061114a6000830185610d8a565b611157602083018461110b565b9392505050565b600060408201905081810360008301526111788185610e0e565b9050818103602083015261118c8184610d99565b90509392505050565b600060208201905081810360008301526111ae81610ef0565b9050919050565b600060208201905081810360008301526111ce81610f30565b9050919050565b60006040820190506111ea6000830184611049565b92915050565b6000602082019050611205600083018461110b565b92915050565b6000604051905081810181811067ffffffffffffffff8211171561122e57600080fd5b8060405250919050565b600067ffffffffffffffff82111561124f57600080fd5b601f19601f8301169050602081019050919050565b6000819050602082019050919050565b6000819050602082019050919050565b600081519050919050565b600081519050919050565b600081519050919050565b6000602082019050919050565b6000602082019050919050565b600082825260208201905092915050565b600082825260208201905092915050565b600082825260208201905092915050565b600082825260208201905092915050565b600061130e8261136d565b9050919050565b60008115159050919050565b600081905061132f82611432565b919050565b60008190506113428261143f565b919050565b60008190506113558261144c565b919050565b600081905061136882611459565b919050565b600073ffffffffffffffffffffffffffffffffffffffff82169050919050565b6000819050919050565b60006113a282611321565b9050919050565b60006113b482611334565b9050919050565b60006113c682611347565b9050919050565b60006113d88261135a565b9050919050565b82818337600083830152505050565b60005b8381101561140c5780820151818401526020810190506113f1565b8381111561141b576000848401525b50505050565b6000601f19601f8301169050919050565b6009811061143c57fe5b50565b6002811061144957fe5b50565b6002811061145657fe5b50565b6002811061146357fe5b50565b61146f81611303565b811461147a57600080fd5b50565b61148681611315565b811461149157600080fd5b50565b600281106114a157600080fd5b50565b6114ad8161138d565b81146114b857600080fd5b5056fea365627a7a72315820ee5888823a7e2d95627cfb7df1dd27bcec7ba8732ad5d4f9168a976c13c55b676c6578706572696d656e74616cf564736f6c63430005100040",
  "source": "pragma solidity ^0.5.0;\npragma experimental ABIEncoderV2;\n\nimport \"@studydefi/money-legos/dydx/contracts/DydxFlashloanBase.sol\";\nimport \"@studydefi/money-legos/dydx/contracts/ICallee.sol\";\nimport {KyberNetworkProxy as IKyberNetworkProxy} from \"@studydefi/money-legos/kyber/contracts/KyberNetworkProxy.sol\";\n\nimport \"@openzeppelin/contracts/token/ERC20/IERC20.sol\";\nimport \"./IUniswapV2Router02.sol\";\nimport \"./IWeth.sol\";\nimport \"./DaiFaucet.sol\";\n\ncontract TestArbitrage is ICallee, DydxFlashloanBase {\n  enum Direction {KyberToUniswap, UniswapToKyber}\n  struct ArbInfo {\n    Direction direction;\n    uint256 repayAmount;\n  }\n\n  event NewArbitrage(Direction direction, uint256 profit, uint256 date);\n\n  IKyberNetworkProxy kyber;\n  IUniswapV2Router02 uniswap;\n  IWeth weth;\n  IERC20 dai;\n  DaiFaucet daiFaucet;\n  address beneficiary;\n  address constant KYBER_ETH_ADDRESS = 0xEeeeeEeeeEeEeeEeEeEeeEEEeeeeEeeeeeeeEEeE;\n\n  // events for debugging\n  event GetMarketID(uint256 indexed marketId);\n  event GetRepayAmount(uint256 indexed repayAmount);\n  event CallFunctionHit(uint256 indexed balanceDai, uint256 indexed repayAmount, Direction indexed direction);\n\n  constructor(\n    address kyberAddress,\n    address uniswapAddress,\n    address wethAddress,\n    address daiAddress,\n    address daiFaucetAddress,\n    address beneficiaryAddress\n  ) public {\n    kyber = IKyberNetworkProxy(kyberAddress);\n    uniswap = IUniswapV2Router02(uniswapAddress);\n    weth = IWeth(wethAddress);\n    dai = IERC20(daiAddress);\n    daiFaucet = DaiFaucet(daiFaucet);\n    beneficiary = beneficiaryAddress;\n  }\n\n  // This is the function that will be called postLoan\n  // i.e. Encode the logic to handle your flashloaned funds here\n  function callFunction(\n    address sender,\n    Account.Info memory account,\n    bytes memory data\n  ) public {\n    ArbInfo memory arbInfo = abi.decode(data, (ArbInfo));\n    uint256 balanceDai = dai.balanceOf(address(this));\n\n    emit CallFunctionHit(balanceDai, arbInfo.repayAmount, arbInfo.direction);\n\n    // Note that you can ignore the line below\n    // if your dydx account (this contract in this case)\n    // has deposited at least ~2 Wei of assets into the account\n    // to balance out the collaterization ratio\n    //require(\n    //    balanceDai >= arbInfo.repayAmount,\n    //    \"Not enough funds to repay dydx loan!\"\n\n    // if (arbInfo.direction == Direction.KyberToUniswap) {\n    //   //Buy ETH on Kyber\n    //   dai.approve(address(kyber), balanceDai);\n    //   //(uint expectedRate, ) = kyber.getExpectedRate(\n    //   //  dai,\n    //   //  IERC20(KYBER_ETH_ADDRESS),\n    //   //  balanceDai\n    //   //);\n    //   //kyber.swapTokenToEther(dai, balanceDai, expectedRate);\n    //   /*\n    //   //Sell ETH on Uniswap\n    //   address[] memory path = new address[](2);\n    //   path[0] = address(weth);\n    //   path[1] = address(dai);\n    //   uint[] memory minOuts = uniswap.getAmountsOut(address(this).balance, path);\n    //   uniswap.swapExactETHForTokens.value(address(this).balance)(\n    //     minOuts[0],\n    //     path,\n    //     address(this),\n    //     now\n    //   );\n    //   */\n    // } else {\n    //   //  //Buy ETH on Uniswap\n    //   dai.approve(address(uniswap), balanceDai);\n    //   address[] memory path = new address[](2);\n    //   path[0] = address(dai);\n    //   path[1] = address(weth);\n    //   uint256[] memory minOuts = uniswap.getAmountsOut(balanceDai, path);\n    //   uniswap.swapExactTokensForETH(balanceDai, minOuts[0], path, address(this), now);\n\n    //   //  //Sell ETH on Kyber\n    //   //  (uint expectedRate, ) = kyber.getExpectedRate(\n    //   //    IERC20(KYBER_ETH_ADDRESS),\n    //   //    dai,\n    //   //    address(this).balance - 2\n    //   //  );\n    //   //kyber.swapEtherToToken.value(address(this).balance)(\n    //   //  dai,\n    //   //  1\n    //   //  //expectedRate\n    //   //);\n    // }\n    // balanceDai = dai.balanceOf(address(this));\n    // if (balanceDai < arbInfo.repayAmount) {\n    //   daiFaucet.sendDai(arbInfo.repayAmount - balanceDai);\n    // }\n    // //uint profit = dai.balanceOf(address(this)) - arbInfo.repayAmount;\n    // //dai.transfer(beneficiary, profit);\n    // //emit NewArbitrage(arbInfo.direction, profit, now);\n  }\n\n  function initiateFlashloan(\n    address _solo,\n    address _token,\n    uint256 _amount,\n    Direction _direction\n  ) external {\n    // Get marketId from token address\n    uint256 marketId = _getMarketIdFromTokenAddress(_solo, _token);\n    emit GetMarketID(marketId);\n\n    // Calculate repay amount (_amount + (2 wei))\n    // Approve transfer from\n    uint256 repayAmount = _getRepaymentAmountInternal(_amount);\n    emit GetRepayAmount(repayAmount);\n\n    IERC20(_token).approve(_solo, repayAmount);\n\n    // 1. Withdraw $\n    // 2. Call callFunction(...)\n    // 3. Deposit back $\n    Actions.ActionArgs[] memory operations = new Actions.ActionArgs[](3);\n\n    operations[0] = _getWithdrawAction(marketId, _amount);\n    operations[1] = _getCallAction(\n      // Encode MyCustomData for callFunction\n      abi.encode(ArbInfo({direction: _direction, repayAmount: repayAmount}))\n    );\n    operations[2] = _getDepositAction(marketId, repayAmount);\n\n    Account.Info[] memory accountInfos = new Account.Info[](1);\n    accountInfos[0] = _getAccountInfo();\n\n    ISoloMargin solo = ISoloMargin(_solo);\n    solo.operate(accountInfos, operations);\n  }\n}\n",
  "sourcePath": "/home/min/Projects/lx/src/github.com/ilovelili/flashloan/contracts/TestArbitrage.sol",
  "compiler": {
    "name": "solc",
    "version": "0.5.16+commit.9c3226ce.Emscripten.clang"
  },
  "schemaVersion": "3.1.0",
  "updatedAt": "2020-07-22T13:10:47.844Z",
  "networkType": "ethereum",
  "devdoc": {
    "methods": {}
  },
  "userdoc": {
    "methods": {}
  }
}