{
  "contractName": "TestAribitrage",
  "abi": [
    {
      "inputs": [
        {
          "internalType": "address",
          "name": "kyberAddress",
          "type": "address"
        },
        {
          "internalType": "address",
          "name": "uniswapAddress",
          "type": "address"
        },
        {
          "internalType": "address",
          "name": "wethAddress",
          "type": "address"
        },
        {
          "internalType": "address",
          "name": "daiAddress",
          "type": "address"
        },
        {
          "internalType": "address",
          "name": "beneficiaryAddress",
          "type": "address"
        }
      ],
      "payable": false,
      "stateMutability": "nonpayable",
      "type": "constructor"
    },
    {
      "constant": false,
      "inputs": [
        {
          "internalType": "uint256",
          "name": "daiAmount",
          "type": "uint256"
        }
      ],
      "name": "KyberToUniswap",
      "outputs": [],
      "payable": false,
      "stateMutability": "nonpayable",
      "type": "function"
    },
    {
      "constant": false,
      "inputs": [
        {
          "internalType": "uint256",
          "name": "daiAmount",
          "type": "uint256"
        }
      ],
      "name": "uniswapToKyber",
      "outputs": [],
      "payable": false,
      "stateMutability": "nonpayable",
      "type": "function"
    }
  ],
  "bytecode": "0x60806040523480156200001157600080fd5b50604051620013223803806200132283398181016040526200003791908101906200019d565b846000806101000a81548173ffffffffffffffffffffffffffffffffffffffff021916908373ffffffffffffffffffffffffffffffffffffffff16021790555083600160006101000a81548173ffffffffffffffffffffffffffffffffffffffff021916908373ffffffffffffffffffffffffffffffffffffffff16021790555082600260006101000a81548173ffffffffffffffffffffffffffffffffffffffff021916908373ffffffffffffffffffffffffffffffffffffffff16021790555081600360006101000a81548173ffffffffffffffffffffffffffffffffffffffff021916908373ffffffffffffffffffffffffffffffffffffffff16021790555080600460006101000a81548173ffffffffffffffffffffffffffffffffffffffff021916908373ffffffffffffffffffffffffffffffffffffffff16021790555050505050506200026d565b600081519050620001978162000253565b92915050565b600080600080600060a08688031215620001b657600080fd5b6000620001c68882890162000186565b9550506020620001d98882890162000186565b9450506040620001ec8882890162000186565b9350506060620001ff8882890162000186565b9250506080620002128882890162000186565b9150509295509295909350565b60006200022c8262000233565b9050919050565b600073ffffffffffffffffffffffffffffffffffffffff82169050919050565b6200025e816200021f565b81146200026a57600080fd5b50565b6110a5806200027d6000396000f3fe608060405234801561001057600080fd5b50600436106100365760003560e01c806365310baa1461003b5780637b0f799614610057575b600080fd5b61005560048036036100509190810190610c19565b610073565b005b610071600480360361006c9190810190610c19565b610465565b005b600360009054906101000a900473ffffffffffffffffffffffffffffffffffffffff1673ffffffffffffffffffffffffffffffffffffffff166323b872dd3330846040518463ffffffff1660e01b81526004016100d293929190610d83565b602060405180830381600087803b1580156100ec57600080fd5b505af1158015610100573d6000803e3d6000fd5b505050506040513d601f19601f820116820180604052506101249190810190610bf0565b506000600360009054906101000a900473ffffffffffffffffffffffffffffffffffffffff1673ffffffffffffffffffffffffffffffffffffffff166370a08231306040518263ffffffff1660e01b81526004016101829190610d68565b60206040518083038186803b15801561019a57600080fd5b505afa1580156101ae573d6000803e3d6000fd5b505050506040513d601f19601f820116820180604052506101d29190810190610c42565b9050600360009054906101000a900473ffffffffffffffffffffffffffffffffffffffff1673ffffffffffffffffffffffffffffffffffffffff1663095ea7b36000809054906101000a900473ffffffffffffffffffffffffffffffffffffffff16836040518363ffffffff1660e01b8152600401610252929190610dba565b602060405180830381600087803b15801561026c57600080fd5b505af1158015610280573d6000803e3d6000fd5b505050506040513d601f19601f820116820180604052506102a49190810190610bf0565b5060008060009054906101000a900473ffffffffffffffffffffffffffffffffffffffff1673ffffffffffffffffffffffffffffffffffffffff1663809a9e55600360009054906101000a900473ffffffffffffffffffffffffffffffffffffffff1673eeeeeeeeeeeeeeeeeeeeeeeeeeeeeeeeeeeeeeee856040518463ffffffff1660e01b815260040161033b93929190610de3565b604080518083038186803b15801561035257600080fd5b505afa158015610366573d6000803e3d6000fd5b505050506040513d601f19601f8201168201806040525061038a9190810190610c6b565b5090506000809054906101000a900473ffffffffffffffffffffffffffffffffffffffff1673ffffffffffffffffffffffffffffffffffffffff16633bba21dc600360009054906101000a900473ffffffffffffffffffffffffffffffffffffffff1684846040518463ffffffff1660e01b815260040161040d93929190610e43565b602060405180830381600087803b15801561042757600080fd5b505af115801561043b573d6000803e3d6000fd5b505050506040513d601f19601f8201168201806040525061045f9190810190610c42565b50505050565b600360009054906101000a900473ffffffffffffffffffffffffffffffffffffffff1673ffffffffffffffffffffffffffffffffffffffff166323b872dd3330846040518463ffffffff1660e01b81526004016104c493929190610d83565b602060405180830381600087803b1580156104de57600080fd5b505af11580156104f2573d6000803e3d6000fd5b505050506040513d601f19601f820116820180604052506105169190810190610bf0565b506000600360009054906101000a900473ffffffffffffffffffffffffffffffffffffffff1673ffffffffffffffffffffffffffffffffffffffff166370a08231306040518263ffffffff1660e01b81526004016105749190610d68565b60206040518083038186803b15801561058c57600080fd5b505afa1580156105a0573d6000803e3d6000fd5b505050506040513d601f19601f820116820180604052506105c49190810190610c42565b9050600360009054906101000a900473ffffffffffffffffffffffffffffffffffffffff1673ffffffffffffffffffffffffffffffffffffffff1663095ea7b3600160009054906101000a900473ffffffffffffffffffffffffffffffffffffffff16836040518363ffffffff1660e01b8152600401610645929190610dba565b602060405180830381600087803b15801561065f57600080fd5b505af1158015610673573d6000803e3d6000fd5b505050506040513d601f19601f820116820180604052506106979190810190610bf0565b50606060026040519080825280602002602001820160405280156106ca5781602001602082028038833980820191505090505b509050600360009054906101000a900473ffffffffffffffffffffffffffffffffffffffff16816000815181106106fd57fe5b602002602001019073ffffffffffffffffffffffffffffffffffffffff16908173ffffffffffffffffffffffffffffffffffffffff1681525050600260009054906101000a900473ffffffffffffffffffffffffffffffffffffffff168160018151811061076757fe5b602002602001019073ffffffffffffffffffffffffffffffffffffffff16908173ffffffffffffffffffffffffffffffffffffffff16815250506060600160009054906101000a900473ffffffffffffffffffffffffffffffffffffffff1673ffffffffffffffffffffffffffffffffffffffff1663d06ca61f84846040518363ffffffff1660e01b8152600401610800929190610e7a565b60006040518083038186803b15801561081857600080fd5b505afa15801561082c573d6000803e3d6000fd5b505050506040513d6000823e3d601f19601f820116820180604052506108559190810190610baf565b9050600160009054906101000a900473ffffffffffffffffffffffffffffffffffffffff1673ffffffffffffffffffffffffffffffffffffffff166318cbafe584836000815181106108a357fe5b60200260200101518530426040518663ffffffff1660e01b81526004016108ce959493929190610eaa565b600060405180830381600087803b1580156108e857600080fd5b505af11580156108fc573d6000803e3d6000fd5b505050506040513d6000823e3d601f19601f820116820180604052506109259190810190610baf565b5060008060009054906101000a900473ffffffffffffffffffffffffffffffffffffffff1673ffffffffffffffffffffffffffffffffffffffff1663809a9e5573eeeeeeeeeeeeeeeeeeeeeeeeeeeeeeeeeeeeeeee600360009054906101000a900473ffffffffffffffffffffffffffffffffffffffff16600247036040518463ffffffff1660e01b81526004016109bf93929190610de3565b604080518083038186803b1580156109d657600080fd5b505afa1580156109ea573d6000803e3d6000fd5b505050506040513d601f19601f82011682018060405250610a0e9190810190610c6b565b5090506000809054906101000a900473ffffffffffffffffffffffffffffffffffffffff1673ffffffffffffffffffffffffffffffffffffffff16637a2a045660024703600360009054906101000a900473ffffffffffffffffffffffffffffffffffffffff16846040518463ffffffff1660e01b8152600401610a93929190610e1a565b6020604051808303818588803b158015610aac57600080fd5b505af1158015610ac0573d6000803e3d6000fd5b50505050506040513d601f19601f82011682018060405250610ae59190810190610c42565b505050505050565b600082601f830112610afe57600080fd5b8151610b11610b0c82610f31565b610f04565b91508181835260208401935060208101905083856020840282011115610b3657600080fd5b60005b83811015610b665781610b4c8882610b9a565b845260208401935060208301925050600181019050610b39565b5050505092915050565b600081519050610b7f81611034565b92915050565b600081359050610b948161104b565b92915050565b600081519050610ba98161104b565b92915050565b600060208284031215610bc157600080fd5b600082015167ffffffffffffffff811115610bdb57600080fd5b610be784828501610aed565b91505092915050565b600060208284031215610c0257600080fd5b6000610c1084828501610b70565b91505092915050565b600060208284031215610c2b57600080fd5b6000610c3984828501610b85565b91505092915050565b600060208284031215610c5457600080fd5b6000610c6284828501610b9a565b91505092915050565b60008060408385031215610c7e57600080fd5b6000610c8c85828601610b9a565b9250506020610c9d85828601610b9a565b9150509250929050565b6000610cb38383610cce565b60208301905092915050565b610cc881610fda565b82525050565b610cd781610f92565b82525050565b610ce681610f92565b82525050565b6000610cf782610f69565b610d018185610f81565b9350610d0c83610f59565b8060005b83811015610d3d578151610d248882610ca7565b9750610d2f83610f74565b925050600181019050610d10565b5085935050505092915050565b610d5381610fec565b82525050565b610d6281610fd0565b82525050565b6000602082019050610d7d6000830184610cdd565b92915050565b6000606082019050610d986000830186610cbf565b610da56020830185610cdd565b610db26040830184610d59565b949350505050565b6000604082019050610dcf6000830185610cdd565b610ddc6020830184610d59565b9392505050565b6000606082019050610df86000830186610d4a565b610e056020830185610d4a565b610e126040830184610d59565b949350505050565b6000604082019050610e2f6000830185610d4a565b610e3c6020830184610d59565b9392505050565b6000606082019050610e586000830186610d4a565b610e656020830185610d59565b610e726040830184610d59565b949350505050565b6000604082019050610e8f6000830185610d59565b8181036020830152610ea18184610cec565b90509392505050565b600060a082019050610ebf6000830188610d59565b610ecc6020830187610d59565b8181036040830152610ede8186610cec565b9050610eed6060830185610cdd565b610efa6080830184610d59565b9695505050505050565b6000604051905081810181811067ffffffffffffffff82111715610f2757600080fd5b8060405250919050565b600067ffffffffffffffff821115610f4857600080fd5b602082029050602081019050919050565b6000819050602082019050919050565b600081519050919050565b6000602082019050919050565b600082825260208201905092915050565b6000610f9d82610fb0565b9050919050565b60008115159050919050565b600073ffffffffffffffffffffffffffffffffffffffff82169050919050565b6000819050919050565b6000610fe582611010565b9050919050565b6000610ff782610ffe565b9050919050565b600061100982610fb0565b9050919050565b600061101b82611022565b9050919050565b600061102d82610fb0565b9050919050565b61103d81610fa4565b811461104857600080fd5b50565b61105481610fd0565b811461105f57600080fd5b5056fea365627a7a72315820a56c0b240898958983d6e4349c44b5fce4282d9d786c82399a2e52b8aac539966c6578706572696d656e74616cf564736f6c63430005100040",
  "source": "// SPDX-License-Identifier: ISC\npragma solidity ^0.5.0;\npragma experimental ABIEncoderV2;\n\nimport {KyberNetworkProxy as IKyberNetworkProxy} from \"@studydefi/money-legos/kyber/contracts/KyberNetworkProxy.sol\";\nimport \"@openzeppelin/contracts/token/ERC20/IERC20.sol\";\nimport \"./IUniswapV2Router02.sol\";\nimport \"./IWeth.sol\";\n\ncontract TestAribitrage {\n  IKyberNetworkProxy kyber;\n  IUniswapV2Router02 uniswap;\n  IWeth weth;\n  IERC20 dai;\n\n  address beneficiary;\n  address constant KYBER_ETH_ADDRESS = 0xEeeeeEeeeEeEeeEeEeEeeEEEeeeeEeeeeeeeEEeE;\n\n  constructor(\n    address kyberAddress,\n    address uniswapAddress,\n    address wethAddress,\n    address daiAddress,\n    address beneficiaryAddress\n  ) public {\n    kyber = IKyberNetworkProxy(kyberAddress);\n    uniswap = IUniswapV2Router02(uniswapAddress);\n    weth = IWeth(wethAddress);\n    dai = IERC20(daiAddress);\n    beneficiary = beneficiaryAddress;\n  }\n\n  function KyberToUniswap(uint256 daiAmount) external {\n    // transferFrom(sender, recipient, amount)\n    dai.transferFrom(msg.sender, address(this), daiAmount);\n    // balanceOf(address account)\n    uint256 balanceDai = dai.balanceOf(address(this));\n\n    // Buy ETH on Kyber\n    // approve(address spender, uint256 amount) → bool external\n    // Sets amount as the allowance of spender over the caller’s tokens.\n    // Returns a boolean value indicating whether the operation succeeded.\n    dai.approve(address(kyber), balanceDai);\n\n    (uint256 expectedRate, ) = kyber.getExpectedRate(dai, IERC20(KYBER_ETH_ADDRESS), balanceDai);\n    kyber.swapTokenToEther(dai, balanceDai, expectedRate);\n\n    // // Sell ETH on Uniswap\n    // address[] memory path = new address[](2);\n    // path[0] = address(weth);\n    // path[1] = address(dai);\n    // uint256[] memory minOuts = uniswap.getAmountsOut(address(this).balance, path);\n    // uniswap.swapExactETHForTokens.value(address(this).balance)(minOuts[0], path, address(this), now);\n  }\n\n  function uniswapToKyber(uint256 daiAmount) external {\n    dai.transferFrom(msg.sender, address(this), daiAmount);\n    uint256 balanceDai = dai.balanceOf(address(this));\n\n    // Buy ETH on Uniswap\n    dai.approve(address(uniswap), balanceDai);\n    address[] memory path = new address[](2);\n    path[0] = address(dai);\n    path[1] = address(weth);\n    uint256[] memory minOuts = uniswap.getAmountsOut(balanceDai, path);\n    uniswap.swapExactTokensForETH(balanceDai, minOuts[0], path, address(this), now);\n\n    // Sell ETH on Kyber\n    (uint256 expectedRate, ) = kyber.getExpectedRate(IERC20(KYBER_ETH_ADDRESS), dai, address(this).balance - 2);\n    kyber.swapEtherToToken.value(address(this).balance - 2)(dai, expectedRate);\n  }\n}\n",
  "sourcePath": "/home/min/Projects/lx/src/github.com/ilovelili/flashloan/contracts/TestArbitrage.sol",
  "compiler": {
    "name": "solc",
    "version": "0.5.16+commit.9c3226ce.Emscripten.clang"
  },
  "schemaVersion": "3.1.0",
  "updatedAt": "2020-07-18T13:16:41.757Z",
  "devdoc": {
    "methods": {}
  },
  "userdoc": {
    "methods": {}
  }
}