{
  "contractName": "TestArbitrage",
  "abi": [
    {
      "inputs": [
        {
          "internalType": "address",
          "name": "kyberAddress",
          "type": "address"
        },
        {
          "internalType": "address",
          "name": "uniswapAddress",
          "type": "address"
        },
        {
          "internalType": "address",
          "name": "wethAddress",
          "type": "address"
        },
        {
          "internalType": "address",
          "name": "daiAddress",
          "type": "address"
        },
        {
          "internalType": "address",
          "name": "daiFaucetAddress",
          "type": "address"
        },
        {
          "internalType": "address",
          "name": "beneficiaryAddress",
          "type": "address"
        }
      ],
      "payable": false,
      "stateMutability": "nonpayable",
      "type": "constructor"
    },
    {
      "anonymous": false,
      "inputs": [
        {
          "indexed": false,
          "internalType": "uint256",
          "name": "balanceDai",
          "type": "uint256"
        },
        {
          "indexed": false,
          "internalType": "uint256",
          "name": "repayAmount",
          "type": "uint256"
        }
      ],
      "name": "Hit",
      "type": "event"
    },
    {
      "anonymous": false,
      "inputs": [
        {
          "indexed": false,
          "internalType": "enum TestArbitrage.Direction",
          "name": "direction",
          "type": "uint8"
        },
        {
          "indexed": false,
          "internalType": "uint256",
          "name": "profit",
          "type": "uint256"
        },
        {
          "indexed": false,
          "internalType": "uint256",
          "name": "date",
          "type": "uint256"
        }
      ],
      "name": "NewArbitrage",
      "type": "event"
    },
    {
      "constant": false,
      "inputs": [
        {
          "internalType": "address",
          "name": "sender",
          "type": "address"
        },
        {
          "components": [
            {
              "internalType": "address",
              "name": "owner",
              "type": "address"
            },
            {
              "internalType": "uint256",
              "name": "number",
              "type": "uint256"
            }
          ],
          "internalType": "struct Account.Info",
          "name": "account",
          "type": "tuple"
        },
        {
          "internalType": "bytes",
          "name": "data",
          "type": "bytes"
        }
      ],
      "name": "callFunction",
      "outputs": [],
      "payable": false,
      "stateMutability": "nonpayable",
      "type": "function"
    },
    {
      "constant": false,
      "inputs": [
        {
          "internalType": "address",
          "name": "_solo",
          "type": "address"
        },
        {
          "internalType": "address",
          "name": "_token",
          "type": "address"
        },
        {
          "internalType": "uint256",
          "name": "_amount",
          "type": "uint256"
        },
        {
          "internalType": "enum TestArbitrage.Direction",
          "name": "_direction",
          "type": "uint8"
        }
      ],
      "name": "initiateFlashloan",
      "outputs": [],
      "payable": false,
      "stateMutability": "nonpayable",
      "type": "function"
    }
  ],
  "bytecode": "0x60806040523480156200001157600080fd5b5060405162001f8b38038062001f8b833981810160405262000037919081019062000201565b856000806101000a81548173ffffffffffffffffffffffffffffffffffffffff021916908373ffffffffffffffffffffffffffffffffffffffff16021790555084600160006101000a81548173ffffffffffffffffffffffffffffffffffffffff021916908373ffffffffffffffffffffffffffffffffffffffff16021790555083600260006101000a81548173ffffffffffffffffffffffffffffffffffffffff021916908373ffffffffffffffffffffffffffffffffffffffff16021790555082600360006101000a81548173ffffffffffffffffffffffffffffffffffffffff021916908373ffffffffffffffffffffffffffffffffffffffff160217905550600460009054906101000a900473ffffffffffffffffffffffffffffffffffffffff16600460006101000a81548173ffffffffffffffffffffffffffffffffffffffff021916908373ffffffffffffffffffffffffffffffffffffffff16021790555080600560006101000a81548173ffffffffffffffffffffffffffffffffffffffff021916908373ffffffffffffffffffffffffffffffffffffffff160217905550505050505050620002e5565b600081519050620001fb81620002cb565b92915050565b60008060008060008060c087890312156200021b57600080fd5b60006200022b89828a01620001ea565b96505060206200023e89828a01620001ea565b95505060406200025189828a01620001ea565b94505060606200026489828a01620001ea565b93505060806200027789828a01620001ea565b92505060a06200028a89828a01620001ea565b9150509295509295509295565b6000620002a482620002ab565b9050919050565b600073ffffffffffffffffffffffffffffffffffffffff82169050919050565b620002d68162000297565b8114620002e257600080fd5b50565b611c9680620002f56000396000f3fe608060405234801561001057600080fd5b50600436106100365760003560e01c80638b4187131461003b578063c013147614610057575b600080fd5b6100556004803603610050919081019061123a565b610073565b005b610071600480360361006c91908101906111d7565b61072d565b005b61007b610e0f565b8180602001905161008f919081019061130b565b90506000600360009054906101000a900473ffffffffffffffffffffffffffffffffffffffff1673ffffffffffffffffffffffffffffffffffffffff166370a08231306040518263ffffffff1660e01b81526004016100ee919061179e565b60206040518083038186803b15801561010657600080fd5b505afa15801561011a573d6000803e3d6000fd5b505050506040513d601f19601f8201168201806040525061013e9190810190611334565b90507f3be6cc0615bb6e572925e9cdc9232def180de30d313be3f7eb301c2ac6bfa3958183602001516040516101759291906118bf565b60405180910390a16000600181111561018a57fe5b8260000151600181111561019a57fe5b141561027657600360009054906101000a900473ffffffffffffffffffffffffffffffffffffffff1673ffffffffffffffffffffffffffffffffffffffff1663095ea7b36000809054906101000a900473ffffffffffffffffffffffffffffffffffffffff16836040518363ffffffff1660e01b815260040161021e9291906117b9565b602060405180830381600087803b15801561023857600080fd5b505af115801561024c573d6000803e3d6000fd5b505050506040513d601f19601f8201168201806040525061027091908101906112e2565b506105d9565b600360009054906101000a900473ffffffffffffffffffffffffffffffffffffffff1673ffffffffffffffffffffffffffffffffffffffff1663095ea7b3600160009054906101000a900473ffffffffffffffffffffffffffffffffffffffff16836040518363ffffffff1660e01b81526004016102f59291906117b9565b602060405180830381600087803b15801561030f57600080fd5b505af1158015610323573d6000803e3d6000fd5b505050506040513d601f19601f8201168201806040525061034791908101906112e2565b506060600260405190808252806020026020018201604052801561037a5781602001602082028038833980820191505090505b509050600360009054906101000a900473ffffffffffffffffffffffffffffffffffffffff16816000815181106103ad57fe5b602002602001019073ffffffffffffffffffffffffffffffffffffffff16908173ffffffffffffffffffffffffffffffffffffffff1681525050600260009054906101000a900473ffffffffffffffffffffffffffffffffffffffff168160018151811061041757fe5b602002602001019073ffffffffffffffffffffffffffffffffffffffff16908173ffffffffffffffffffffffffffffffffffffffff16815250506060600160009054906101000a900473ffffffffffffffffffffffffffffffffffffffff1673ffffffffffffffffffffffffffffffffffffffff1663d06ca61f84846040518363ffffffff1660e01b81526004016104b092919061188f565b60006040518083038186803b1580156104c857600080fd5b505afa1580156104dc573d6000803e3d6000fd5b505050506040513d6000823e3d601f19601f8201168201806040525061050591908101906112a1565b9050600160009054906101000a900473ffffffffffffffffffffffffffffffffffffffff1673ffffffffffffffffffffffffffffffffffffffff166318cbafe5848360008151811061055357fe5b60200260200101518530426040518663ffffffff1660e01b815260040161057e9594939291906118e8565b600060405180830381600087803b15801561059857600080fd5b505af11580156105ac573d6000803e3d6000fd5b505050506040513d6000823e3d601f19601f820116820180604052506105d591908101906112a1565b5050505b600360009054906101000a900473ffffffffffffffffffffffffffffffffffffffff1673ffffffffffffffffffffffffffffffffffffffff166370a08231306040518263ffffffff1660e01b8152600401610634919061179e565b60206040518083038186803b15801561064c57600080fd5b505afa158015610660573d6000803e3d6000fd5b505050506040513d601f19601f820116820180604052506106849190810190611334565b9050816020015181101561072657600460009054906101000a900473ffffffffffffffffffffffffffffffffffffffff1673ffffffffffffffffffffffffffffffffffffffff16638cd6b340828460200151036040518263ffffffff1660e01b81526004016106f39190611874565b600060405180830381600087803b15801561070d57600080fd5b505af1158015610721573d6000803e3d6000fd5b505050505b5050505050565b6000849050600061073e8686610996565b9050600061074b85610b48565b90508573ffffffffffffffffffffffffffffffffffffffff1663095ea7b388836040518363ffffffff1660e01b81526004016107889291906117b9565b602060405180830381600087803b1580156107a257600080fd5b505af11580156107b6573d6000803e3d6000fd5b505050506040513d601f19601f820116820180604052506107da91908101906112e2565b506060600360405190808252806020026020018201604052801561081857816020015b610805610e34565b8152602001906001900390816107fd5790505b5090506108258387610b65565b8160008151811061083257fe5b6020026020010181905250610884604051806040016040528087600181111561085757fe5b8152602001848152506040516020016108709190611859565b604051602081830303815290604052610c1e565b8160018151811061089157fe5b60200260200101819052506108a68383610cc8565b816002815181106108b357fe5b6020026020010181905250606060016040519080825280602002602001820160405280156108fb57816020015b6108e8610ea0565b8152602001906001900390816108e05790505b509050610906610d81565b8160008151811061091357fe5b60200260200101819052508473ffffffffffffffffffffffffffffffffffffffff1663a67a6a4582846040518363ffffffff1660e01b81526004016109599291906117e2565b600060405180830381600087803b15801561097357600080fd5b505af1158015610987573d6000803e3d6000fd5b50505050505050505050505050565b60008083905060008173ffffffffffffffffffffffffffffffffffffffff1663295c39a56040518163ffffffff1660e01b815260040160206040518083038186803b1580156109e457600080fd5b505afa1580156109f8573d6000803e3d6000fd5b505050506040513d601f19601f82011682018060405250610a1c9190810190611334565b9050600080600090505b82811015610b06578373ffffffffffffffffffffffffffffffffffffffff1663062bd3e9826040518263ffffffff1660e01b8152600401610a679190611874565b60206040518083038186803b158015610a7f57600080fd5b505afa158015610a93573d6000803e3d6000fd5b505050506040513d601f19601f82011682018060405250610ab791908101906111ae565b91508573ffffffffffffffffffffffffffffffffffffffff168273ffffffffffffffffffffffffffffffffffffffff161415610af95780945050505050610b42565b8080600101915050610a26565b506040517f08c379a0000000000000000000000000000000000000000000000000000000008152600401610b3990611839565b60405180910390fd5b92915050565b6000610b5e600283610dba90919063ffffffff16565b9050919050565b610b6d610ed0565b60405180610100016040528060016008811115610b8657fe5b815260200160008152602001604051806080016040528060001515815260200160006001811115610bb357fe5b815260200160006001811115610bc557fe5b8152602001858152508152602001848152602001600081526020013073ffffffffffffffffffffffffffffffffffffffff1681526020016000815260200160405180602001604052806000815250815250905092915050565b610c26610ed0565b604051806101000160405280600880811115610c3e57fe5b815260200160008152602001604051806080016040528060001515815260200160006001811115610c6b57fe5b815260200160006001811115610c7d57fe5b81526020016000815250815260200160008152602001600081526020013073ffffffffffffffffffffffffffffffffffffffff16815260200160008152602001838152509050919050565b610cd0610ed0565b60405180610100016040528060006008811115610ce957fe5b815260200160008152602001604051806080016040528060011515815260200160006001811115610d1657fe5b815260200160006001811115610d2857fe5b8152602001858152508152602001848152602001600081526020013073ffffffffffffffffffffffffffffffffffffffff1681526020016000815260200160405180602001604052806000815250815250905092915050565b610d89610f3c565b60405180604001604052803073ffffffffffffffffffffffffffffffffffffffff1681526020016001815250905090565b600080828401905083811015610e05576040517f08c379a0000000000000000000000000000000000000000000000000000000008152600401610dfc90611819565b60405180910390fd5b8091505092915050565b604051806040016040528060006001811115610e2757fe5b8152602001600081525090565b60405180610100016040528060006008811115610e4d57fe5b815260200160008152602001610e61610f6c565b81526020016000815260200160008152602001600073ffffffffffffffffffffffffffffffffffffffff16815260200160008152602001606081525090565b6040518060400160405280600073ffffffffffffffffffffffffffffffffffffffff168152602001600081525090565b60405180610100016040528060006008811115610ee957fe5b815260200160008152602001610efd610f6c565b81526020016000815260200160008152602001600073ffffffffffffffffffffffffffffffffffffffff16815260200160008152602001606081525090565b6040518060400160405280600073ffffffffffffffffffffffffffffffffffffffff168152602001600081525090565b604051806080016040528060001515815260200160006001811115610f8d57fe5b815260200160006001811115610f9f57fe5b8152602001600081525090565b600081359050610fbb81611bfe565b92915050565b600081519050610fd081611bfe565b92915050565b600082601f830112610fe757600080fd5b8151610ffa610ff58261196f565b611942565b9150818183526020840193506020810190508385602084028201111561101f57600080fd5b60005b8381101561104f57816110358882611199565b845260208401935060208301925050600181019050611022565b5050505092915050565b60008151905061106881611c15565b92915050565b600082601f83011261107f57600080fd5b813561109261108d82611997565b611942565b915080825260208301602083018583830111156110ae57600080fd5b6110b9838284611b77565b50505092915050565b6000813590506110d181611c2c565b92915050565b6000815190506110e681611c2c565b92915050565b6000604082840312156110fe57600080fd5b6111086040611942565b90506000611118848285016110d7565b600083015250602061112c84828501611199565b60208301525092915050565b60006040828403121561114a57600080fd5b6111546040611942565b9050600061116484828501610fac565b600083015250602061117884828501611184565b60208301525092915050565b60008135905061119381611c3c565b92915050565b6000815190506111a881611c3c565b92915050565b6000602082840312156111c057600080fd5b60006111ce84828501610fc1565b91505092915050565b600080600080608085870312156111ed57600080fd5b60006111fb87828801610fac565b945050602061120c87828801610fac565b935050604061121d87828801611184565b925050606061122e878288016110c2565b91505092959194509250565b60008060006080848603121561124f57600080fd5b600061125d86828701610fac565b935050602061126e86828701611138565b925050606084013567ffffffffffffffff81111561128b57600080fd5b6112978682870161106e565b9150509250925092565b6000602082840312156112b357600080fd5b600082015167ffffffffffffffff8111156112cd57600080fd5b6112d984828501610fd6565b91505092915050565b6000602082840312156112f457600080fd5b600061130284828501611059565b91505092915050565b60006040828403121561131d57600080fd5b600061132b848285016110ec565b91505092915050565b60006020828403121561134657600080fd5b600061135484828501611199565b91505092915050565b600061136983836113a1565b60208301905092915050565b6000611381838361161a565b905092915050565b60006113958383611751565b60408301905092915050565b6113aa81611a9b565b82525050565b6113b981611a9b565b82525050565b60006113ca826119f3565b6113d48185611a46565b93506113df836119c3565b8060005b838110156114105781516113f7888261135d565b975061140283611a1f565b9250506001810190506113e3565b5085935050505092915050565b6000611428826119fe565b6114328185611a57565b935083602082028501611444856119d3565b8060005b8581101561148057848403895281516114618582611375565b945061146c83611a2c565b925060208a01995050600181019050611448565b50829750879550505050505092915050565b600061149d82611a09565b6114a78185611a68565b93506114b2836119e3565b8060005b838110156114e35781516114ca8882611389565b97506114d583611a39565b9250506001810190506114b6565b5085935050505092915050565b6114f981611aad565b82525050565b600061150a82611a14565b6115148185611a79565b9350611524818560208601611b86565b61152d81611bb9565b840191505092915050565b61154181611b2f565b82525050565b61155081611b41565b82525050565b61155f81611b53565b82525050565b61156e81611b65565b82525050565b6000611581601b83611a8a565b91507f536166654d6174683a206164646974696f6e206f766572666c6f7700000000006000830152602082019050919050565b60006115c1602483611a8a565b91507f4e6f206d61726b6574496420666f756e6420666f722070726f7669646564207460008301527f6f6b656e000000000000000000000000000000000000000000000000000000006020830152604082019050919050565b6000610160830160008301516116336000860182611538565b5060208301516116466020860182611780565b50604083015161165960408601826116fc565b50606083015161166c60c0860182611780565b50608083015161167f60e0860182611780565b5060a08301516116936101008601826113a1565b5060c08301516116a7610120860182611780565b5060e08301518482036101408601526116c082826114ff565b9150508091505092915050565b6040820160008201516116e36000850182611565565b5060208201516116f66020850182611780565b50505050565b60808201600082015161171260008501826114f0565b5060208201516117256020850182611547565b5060408201516117386040850182611556565b50606082015161174b6060850182611780565b50505050565b60408201600082015161176760008501826113a1565b50602082015161177a6020850182611780565b50505050565b61178981611b25565b82525050565b61179881611b25565b82525050565b60006020820190506117b360008301846113b0565b92915050565b60006040820190506117ce60008301856113b0565b6117db602083018461178f565b9392505050565b600060408201905081810360008301526117fc8185611492565b90508181036020830152611810818461141d565b90509392505050565b6000602082019050818103600083015261183281611574565b9050919050565b60006020820190508181036000830152611852816115b4565b9050919050565b600060408201905061186e60008301846116cd565b92915050565b6000602082019050611889600083018461178f565b92915050565b60006040820190506118a4600083018561178f565b81810360208301526118b681846113bf565b90509392505050565b60006040820190506118d4600083018561178f565b6118e1602083018461178f565b9392505050565b600060a0820190506118fd600083018861178f565b61190a602083018761178f565b818103604083015261191c81866113bf565b905061192b60608301856113b0565b611938608083018461178f565b9695505050505050565b6000604051905081810181811067ffffffffffffffff8211171561196557600080fd5b8060405250919050565b600067ffffffffffffffff82111561198657600080fd5b602082029050602081019050919050565b600067ffffffffffffffff8211156119ae57600080fd5b601f19601f8301169050602081019050919050565b6000819050602082019050919050565b6000819050602082019050919050565b6000819050602082019050919050565b600081519050919050565b600081519050919050565b600081519050919050565b600081519050919050565b6000602082019050919050565b6000602082019050919050565b6000602082019050919050565b600082825260208201905092915050565b600082825260208201905092915050565b600082825260208201905092915050565b600082825260208201905092915050565b600082825260208201905092915050565b6000611aa682611b05565b9050919050565b60008115159050919050565b6000819050611ac782611bca565b919050565b6000819050611ada82611bd7565b919050565b6000819050611aed82611be4565b919050565b6000819050611b0082611bf1565b919050565b600073ffffffffffffffffffffffffffffffffffffffff82169050919050565b6000819050919050565b6000611b3a82611ab9565b9050919050565b6000611b4c82611acc565b9050919050565b6000611b5e82611adf565b9050919050565b6000611b7082611af2565b9050919050565b82818337600083830152505050565b60005b83811015611ba4578082015181840152602081019050611b89565b83811115611bb3576000848401525b50505050565b6000601f19601f8301169050919050565b60098110611bd457fe5b50565b60028110611be157fe5b50565b60028110611bee57fe5b50565b60028110611bfb57fe5b50565b611c0781611a9b565b8114611c1257600080fd5b50565b611c1e81611aad565b8114611c2957600080fd5b50565b60028110611c3957600080fd5b50565b611c4581611b25565b8114611c5057600080fd5b5056fea365627a7a723158208c63d2b48e1f242e80373737849b8bd70b91f242e70e6903ea547659d7fcb15a6c6578706572696d656e74616cf564736f6c63430005100040",
  "source": "pragma solidity ^0.5.0;\npragma experimental ABIEncoderV2;\n\nimport \"@studydefi/money-legos/dydx/contracts/DydxFlashloanBase.sol\";\nimport \"@studydefi/money-legos/dydx/contracts/ICallee.sol\";\nimport {KyberNetworkProxy as IKyberNetworkProxy} from \"@studydefi/money-legos/kyber/contracts/KyberNetworkProxy.sol\";\n\nimport \"@openzeppelin/contracts/token/ERC20/IERC20.sol\";\nimport \"./IUniswapV2Router02.sol\";\nimport \"./IWeth.sol\";\nimport \"./DaiFaucet.sol\";\n\ncontract TestArbitrage is ICallee, DydxFlashloanBase {\n  enum Direction {KyberToUniswap, UniswapToKyber}\n  struct ArbInfo {\n    Direction direction;\n    uint256 repayAmount;\n  }\n\n  event NewArbitrage(Direction direction, uint256 profit, uint256 date);\n\n  IKyberNetworkProxy kyber;\n  IUniswapV2Router02 uniswap;\n  IWeth weth;\n  IERC20 dai;\n  DaiFaucet daiFaucet;\n  address beneficiary;\n  address constant KYBER_ETH_ADDRESS = 0xEeeeeEeeeEeEeeEeEeEeeEEEeeeeEeeeeeeeEEeE;\n\n  event Hit(uint256 balanceDai, uint256 repayAmount);\n\n  constructor(\n    address kyberAddress,\n    address uniswapAddress,\n    address wethAddress,\n    address daiAddress,\n    address daiFaucetAddress,\n    address beneficiaryAddress\n  ) public {\n    kyber = IKyberNetworkProxy(kyberAddress);\n    uniswap = IUniswapV2Router02(uniswapAddress);\n    weth = IWeth(wethAddress);\n    dai = IERC20(daiAddress);\n    daiFaucet = DaiFaucet(daiFaucet);\n    beneficiary = beneficiaryAddress;\n  }\n\n  // This is the function that will be called postLoan\n  // i.e. Encode the logic to handle your flashloaned funds here\n  function callFunction(\n    address sender,\n    Account.Info memory account,\n    bytes memory data\n  ) public {\n    ArbInfo memory arbInfo = abi.decode(data, (ArbInfo));\n    uint256 balanceDai = dai.balanceOf(address(this));\n\n    emit Hit(balanceDai, arbInfo.repayAmount);\n\n    // Note that you can ignore the line below\n    // if your dydx account (this contract in this case)\n    // has deposited at least ~2 Wei of assets into the account\n    // to balance out the collaterization ratio\n    //require(\n    //    balanceDai >= arbInfo.repayAmount,\n    //    \"Not enough funds to repay dydx loan!\"\n\n    if (arbInfo.direction == Direction.KyberToUniswap) {\n      //Buy ETH on Kyber\n      dai.approve(address(kyber), balanceDai);\n      //(uint expectedRate, ) = kyber.getExpectedRate(\n      //  dai,\n      //  IERC20(KYBER_ETH_ADDRESS),\n      //  balanceDai\n      //);\n      //kyber.swapTokenToEther(dai, balanceDai, expectedRate);\n      /*\n      //Sell ETH on Uniswap\n      address[] memory path = new address[](2);\n      path[0] = address(weth);\n      path[1] = address(dai);\n      uint[] memory minOuts = uniswap.getAmountsOut(address(this).balance, path); \n      uniswap.swapExactETHForTokens.value(address(this).balance)(\n        minOuts[0], \n        path, \n        address(this), \n        now\n      );\n      */\n    } else {\n      //  //Buy ETH on Uniswap\n      dai.approve(address(uniswap), balanceDai);\n      address[] memory path = new address[](2);\n      path[0] = address(dai);\n      path[1] = address(weth);\n      uint256[] memory minOuts = uniswap.getAmountsOut(balanceDai, path);\n      uniswap.swapExactTokensForETH(balanceDai, minOuts[0], path, address(this), now);\n\n      //  //Sell ETH on Kyber\n      //  (uint expectedRate, ) = kyber.getExpectedRate(\n      //    IERC20(KYBER_ETH_ADDRESS),\n      //    dai,\n      //    address(this).balance - 2\n      //  );\n      //kyber.swapEtherToToken.value(address(this).balance)(\n      //  dai,\n      //  1\n      //  //expectedRate\n      //);\n    }\n    balanceDai = dai.balanceOf(address(this));\n    if (balanceDai < arbInfo.repayAmount) {\n      daiFaucet.sendDai(arbInfo.repayAmount - balanceDai);\n    }\n    //uint profit = dai.balanceOf(address(this)) - arbInfo.repayAmount;\n    //dai.transfer(beneficiary, profit);\n    //emit NewArbitrage(arbInfo.direction, profit, now);\n  }\n\n  function initiateFlashloan(\n    address _solo,\n    address _token,\n    uint256 _amount,\n    Direction _direction\n  ) external {\n    ISoloMargin solo = ISoloMargin(_solo);\n\n    // Get marketId from token address\n    uint256 marketId = _getMarketIdFromTokenAddress(_solo, _token);\n\n    // Calculate repay amount (_amount + (2 wei))\n    // Approve transfer from\n    uint256 repayAmount = _getRepaymentAmountInternal(_amount);\n    IERC20(_token).approve(_solo, repayAmount);\n\n    // 1. Withdraw $\n    // 2. Call callFunction(...)\n    // 3. Deposit back $\n    Actions.ActionArgs[] memory operations = new Actions.ActionArgs[](3);\n\n    operations[0] = _getWithdrawAction(marketId, _amount);\n    operations[1] = _getCallAction(\n      // Encode MyCustomData for callFunction\n      abi.encode(ArbInfo({direction: _direction, repayAmount: repayAmount}))\n    );\n    operations[2] = _getDepositAction(marketId, repayAmount);\n\n    Account.Info[] memory accountInfos = new Account.Info[](1);\n    accountInfos[0] = _getAccountInfo();\n\n    solo.operate(accountInfos, operations);\n  }\n}\n",
  "sourcePath": "/home/min/Projects/lx/src/github.com/ilovelili/flashloan/contracts/TestArbitrage.sol",
  "compiler": {
    "name": "solc",
    "version": "0.5.16+commit.9c3226ce.Emscripten.clang"
  },
  "schemaVersion": "3.1.0",
  "updatedAt": "2020-07-21T14:02:52.909Z",
  "networkType": "ethereum",
  "devdoc": {
    "methods": {}
  },
  "userdoc": {
    "methods": {}
  }
}